{
    "_format": "hh-sol-artifact-1",
    "contractName": "nftTicketing",
    "sourceName": "contracts/nftTicketing.sol",
    "abi": [
        {
            "inputs": [],
            "stateMutability": "nonpayable",
            "type": "constructor"
        },
        {
            "anonymous": false,
            "inputs": [
                {
                    "indexed": true,
                    "internalType": "address",
                    "name": "owner",
                    "type": "address"
                },
                {
                    "indexed": true,
                    "internalType": "address",
                    "name": "approved",
                    "type": "address"
                },
                {
                    "indexed": true,
                    "internalType": "uint256",
                    "name": "tokenId",
                    "type": "uint256"
                }
            ],
            "name": "Approval",
            "type": "event"
        },
        {
            "anonymous": false,
            "inputs": [
                {
                    "indexed": true,
                    "internalType": "address",
                    "name": "owner",
                    "type": "address"
                },
                {
                    "indexed": true,
                    "internalType": "address",
                    "name": "operator",
                    "type": "address"
                },
                {
                    "indexed": false,
                    "internalType": "bool",
                    "name": "approved",
                    "type": "bool"
                }
            ],
            "name": "ApprovalForAll",
            "type": "event"
        },
        {
            "anonymous": false,
            "inputs": [
                {
                    "indexed": true,
                    "internalType": "address",
                    "name": "previousOwner",
                    "type": "address"
                },
                {
                    "indexed": true,
                    "internalType": "address",
                    "name": "newOwner",
                    "type": "address"
                }
            ],
            "name": "OwnershipTransferred",
            "type": "event"
        },
        {
            "anonymous": false,
            "inputs": [
                {
                    "indexed": true,
                    "internalType": "address",
                    "name": "from",
                    "type": "address"
                },
                {
                    "indexed": true,
                    "internalType": "address",
                    "name": "to",
                    "type": "address"
                },
                {
                    "indexed": true,
                    "internalType": "uint256",
                    "name": "tokenId",
                    "type": "uint256"
                }
            ],
            "name": "Transfer",
            "type": "event"
        },
        {
            "inputs": [
                {
                    "internalType": "address",
                    "name": "to",
                    "type": "address"
                },
                {
                    "internalType": "uint256",
                    "name": "tokenId",
                    "type": "uint256"
                }
            ],
            "name": "approve",
            "outputs": [],
            "stateMutability": "nonpayable",
            "type": "function"
        },
        {
            "inputs": [],
            "name": "availableTicketCount",
            "outputs": [
                {
                    "internalType": "uint256",
                    "name": "",
                    "type": "uint256"
                }
            ],
            "stateMutability": "view",
            "type": "function"
        },
        {
            "inputs": [],
            "name": "availableTickets",
            "outputs": [
                {
                    "internalType": "uint256",
                    "name": "",
                    "type": "uint256"
                }
            ],
            "stateMutability": "view",
            "type": "function"
        },
        {
            "inputs": [
                {
                    "internalType": "address",
                    "name": "owner",
                    "type": "address"
                }
            ],
            "name": "balanceOf",
            "outputs": [
                {
                    "internalType": "uint256",
                    "name": "",
                    "type": "uint256"
                }
            ],
            "stateMutability": "view",
            "type": "function"
        },
        {
            "inputs": [],
            "name": "closeSale",
            "outputs": [],
            "stateMutability": "nonpayable",
            "type": "function"
        },
        {
            "inputs": [
                {
                    "internalType": "uint256",
                    "name": "tokenId",
                    "type": "uint256"
                }
            ],
            "name": "getApproved",
            "outputs": [
                {
                    "internalType": "address",
                    "name": "",
                    "type": "address"
                }
            ],
            "stateMutability": "view",
            "type": "function"
        },
        {
            "inputs": [
                {
                    "internalType": "address",
                    "name": "owner",
                    "type": "address"
                },
                {
                    "internalType": "address",
                    "name": "operator",
                    "type": "address"
                }
            ],
            "name": "isApprovedForAll",
            "outputs": [
                {
                    "internalType": "bool",
                    "name": "",
                    "type": "bool"
                }
            ],
            "stateMutability": "view",
            "type": "function"
        },
        {
            "inputs": [],
            "name": "mint",
            "outputs": [],
            "stateMutability": "payable",
            "type": "function"
        },
        {
            "inputs": [],
            "name": "mintPrice",
            "outputs": [
                {
                    "internalType": "uint256",
                    "name": "",
                    "type": "uint256"
                }
            ],
            "stateMutability": "view",
            "type": "function"
        },
        {
            "inputs": [],
            "name": "name",
            "outputs": [
                {
                    "internalType": "string",
                    "name": "",
                    "type": "string"
                }
            ],
            "stateMutability": "view",
            "type": "function"
        },
        {
            "inputs": [],
            "name": "openSale",
            "outputs": [],
            "stateMutability": "nonpayable",
            "type": "function"
        },
        {
            "inputs": [],
            "name": "owner",
            "outputs": [
                {
                    "internalType": "address",
                    "name": "",
                    "type": "address"
                }
            ],
            "stateMutability": "view",
            "type": "function"
        },
        {
            "inputs": [
                {
                    "internalType": "uint256",
                    "name": "tokenId",
                    "type": "uint256"
                }
            ],
            "name": "ownerOf",
            "outputs": [
                {
                    "internalType": "address",
                    "name": "",
                    "type": "address"
                }
            ],
            "stateMutability": "view",
            "type": "function"
        },
        {
            "inputs": [
                {
                    "internalType": "address",
                    "name": "",
                    "type": "address"
                },
                {
                    "internalType": "uint256",
                    "name": "",
                    "type": "uint256"
                }
            ],
            "name": "ownerTokenIDS",
            "outputs": [
                {
                    "internalType": "uint256",
                    "name": "",
                    "type": "uint256"
                }
            ],
            "stateMutability": "view",
            "type": "function"
        },
        {
            "inputs": [],
            "name": "renounceOwnership",
            "outputs": [],
            "stateMutability": "nonpayable",
            "type": "function"
        },
        {
            "inputs": [
                {
                    "internalType": "address",
                    "name": "from",
                    "type": "address"
                },
                {
                    "internalType": "address",
                    "name": "to",
                    "type": "address"
                },
                {
                    "internalType": "uint256",
                    "name": "tokenId",
                    "type": "uint256"
                }
            ],
            "name": "safeTransferFrom",
            "outputs": [],
            "stateMutability": "nonpayable",
            "type": "function"
        },
        {
            "inputs": [
                {
                    "internalType": "address",
                    "name": "from",
                    "type": "address"
                },
                {
                    "internalType": "address",
                    "name": "to",
                    "type": "address"
                },
                {
                    "internalType": "uint256",
                    "name": "tokenId",
                    "type": "uint256"
                },
                {
                    "internalType": "bytes",
                    "name": "_data",
                    "type": "bytes"
                }
            ],
            "name": "safeTransferFrom",
            "outputs": [],
            "stateMutability": "nonpayable",
            "type": "function"
        },
        {
            "inputs": [],
            "name": "saleIsActive",
            "outputs": [
                {
                    "internalType": "bool",
                    "name": "",
                    "type": "bool"
                }
            ],
            "stateMutability": "view",
            "type": "function"
        },
        {
            "inputs": [
                {
                    "internalType": "address",
                    "name": "operator",
                    "type": "address"
                },
                {
                    "internalType": "bool",
                    "name": "approved",
                    "type": "bool"
                }
            ],
            "name": "setApprovalForAll",
            "outputs": [],
            "stateMutability": "nonpayable",
            "type": "function"
        },
        {
            "inputs": [
                {
                    "internalType": "bytes4",
                    "name": "interfaceId",
                    "type": "bytes4"
                }
            ],
            "name": "supportsInterface",
            "outputs": [
                {
                    "internalType": "bool",
                    "name": "",
                    "type": "bool"
                }
            ],
            "stateMutability": "view",
            "type": "function"
        },
        {
            "inputs": [],
            "name": "symbol",
            "outputs": [
                {
                    "internalType": "string",
                    "name": "",
                    "type": "string"
                }
            ],
            "stateMutability": "view",
            "type": "function"
        },
        {
            "inputs": [
                {
                    "internalType": "uint256",
                    "name": "tokenId",
                    "type": "uint256"
                }
            ],
            "name": "tokenURI",
            "outputs": [
                {
                    "internalType": "string",
                    "name": "",
                    "type": "string"
                }
            ],
            "stateMutability": "view",
            "type": "function"
        },
        {
            "inputs": [],
            "name": "totalTicketCount",
            "outputs": [
                {
                    "internalType": "uint256",
                    "name": "",
                    "type": "uint256"
                }
            ],
            "stateMutability": "view",
            "type": "function"
        },
        {
            "inputs": [],
            "name": "totalTickets",
            "outputs": [
                {
                    "internalType": "uint256",
                    "name": "",
                    "type": "uint256"
                }
            ],
            "stateMutability": "view",
            "type": "function"
        },
        {
            "inputs": [
                {
                    "internalType": "address",
                    "name": "from",
                    "type": "address"
                },
                {
                    "internalType": "address",
                    "name": "to",
                    "type": "address"
                },
                {
                    "internalType": "uint256",
                    "name": "tokenId",
                    "type": "uint256"
                }
            ],
            "name": "transferFrom",
            "outputs": [],
            "stateMutability": "nonpayable",
            "type": "function"
        },
        {
            "inputs": [
                {
                    "internalType": "address",
                    "name": "newOwner",
                    "type": "address"
                }
            ],
            "name": "transferOwnership",
            "outputs": [],
            "stateMutability": "nonpayable",
            "type": "function"
        }
    ],
    "bytecode": "0x60806040526009805460ff191690556064600a819055600b5567011c37937e080000600c553480156200003157600080fd5b50604080518082018252600a8152696e66745469636b65747360b01b6020808301918252835180850190945260048452631391951560e21b9084015281519192916200008091600091620001cf565b50805162000096906001906020840190620001cf565b505050620000b3620000ad620000fc60201b60201c565b62000100565b620000ca60086200015260201b62000df11760201c565b620000f6620000e560086200015b60201b62000dfa1760201c565b6200015f60201b62000dfe1760201c565b620002b2565b3390565b600780546001600160a01b038381166001600160a01b0319831681179093556040519116919082907f8be0079c531659141344cd1fd0a4f28419497f9722a3daafe3b4186f6b6457e090600090a35050565b80546001019055565b5490565b620001ab816040516024016200017791815260200190565b60408051601f198184030181529190526020810180516001600160e01b0390811663f5b1bba960e01b17909152620001ae16565b50565b80516a636f6e736f6c652e6c6f67602083016000808483855afa5050505050565b828054620001dd9062000275565b90600052602060002090601f0160209004810192826200020157600085556200024c565b82601f106200021c57805160ff19168380011785556200024c565b828001600101855582156200024c579182015b828111156200024c5782518255916020019190600101906200022f565b506200025a9291506200025e565b5090565b5b808211156200025a57600081556001016200025f565b600181811c908216806200028a57607f821691505b60208210811415620002ac57634e487b7160e01b600052602260045260246000fd5b50919050565b6121f080620002c26000396000f3fe6080604052600436106101815760003560e01c806370a08231116100d1578063c87b56dd1161008a578063e985e9c511610064578063e985e9c514610412578063eb8d24441461045b578063ee55efee14610475578063f2fde38b1461048a57600080fd5b8063c87b56dd146103bc578063c8de91ac146103dc578063dd11247e146103fc57600080fd5b806370a0823114610314578063715018a6146103345780638da5cb5b1461034957806395d89b4114610367578063a22cb4651461037c578063b88d4fde1461039c57600080fd5b8063167ff46f1161013e5780633d721ecd116101185780633d721ecd146102a957806342842e0e146102be5780636352211e146102de5780636817c76c146102fe57600080fd5b8063167ff46f1461025e57806323b872dd146102735780633cfa7e011461029357600080fd5b806301ffc9a71461018657806306fdde03146101bb578063081812fc146101dd578063095ea7b3146102155780631249c58b1461023757806314558fab1461023f575b600080fd5b34801561019257600080fd5b506101a66101a1366004611c25565b6104aa565b60405190151581526020015b60405180910390f35b3480156101c757600080fd5b506101d06104fc565b6040516101b29190611ef2565b3480156101e957600080fd5b506101fd6101f8366004611c5d565b61058e565b6040516001600160a01b0390911681526020016101b2565b34801561022157600080fd5b50610235610230366004611bfc565b61061b565b005b610235610731565b34801561024b57600080fd5b50600a545b6040519081526020016101b2565b34801561026a57600080fd5b50610235610969565b34801561027f57600080fd5b5061023561028e366004611ab2565b6109a2565b34801561029f57600080fd5b50610250600b5481565b3480156102b557600080fd5b50600b54610250565b3480156102ca57600080fd5b506102356102d9366004611ab2565b6109d3565b3480156102ea57600080fd5b506101fd6102f9366004611c5d565b6109ee565b34801561030a57600080fd5b50610250600c5481565b34801561032057600080fd5b5061025061032f366004611a66565b610a65565b34801561034057600080fd5b50610235610aec565b34801561035557600080fd5b506007546001600160a01b03166101fd565b34801561037357600080fd5b506101d0610b22565b34801561038857600080fd5b50610235610397366004611bc2565b610b31565b3480156103a857600080fd5b506102356103b7366004611aed565b610b40565b3480156103c857600080fd5b506101d06103d7366004611c5d565b610b78565b3480156103e857600080fd5b506102506103f7366004611bfc565b610cef565b34801561040857600080fd5b50610250600a5481565b34801561041e57600080fd5b506101a661042d366004611a80565b6001600160a01b03918216600090815260056020908152604080832093909416825291909152205460ff1690565b34801561046757600080fd5b506009546101a69060ff1681565b34801561048157600080fd5b50610235610d20565b34801561049657600080fd5b506102356104a5366004611a66565b610d56565b60006001600160e01b031982166380ac58cd60e01b14806104db57506001600160e01b03198216635b5e139f60e01b145b806104f657506301ffc9a760e01b6001600160e01b03198316145b92915050565b60606000805461050b9061206b565b80601f01602080910402602001604051908101604052809291908181526020018280546105379061206b565b80156105845780601f1061055957610100808354040283529160200191610584565b820191906000526020600020905b81548152906001019060200180831161056757829003601f168201915b5050505050905090565b600061059982610e43565b6105ff5760405162461bcd60e51b815260206004820152602c60248201527f4552433732313a20617070726f76656420717565727920666f72206e6f6e657860448201526b34b9ba32b73a103a37b5b2b760a11b60648201526084015b60405180910390fd5b506000908152600460205260409020546001600160a01b031690565b6000610626826109ee565b9050806001600160a01b0316836001600160a01b031614156106945760405162461bcd60e51b815260206004820152602160248201527f4552433732313a20617070726f76616c20746f2063757272656e74206f776e656044820152603960f91b60648201526084016105f6565b336001600160a01b03821614806106b057506106b0813361042d565b6107225760405162461bcd60e51b815260206004820152603860248201527f4552433732313a20617070726f76652063616c6c6572206973206e6f74206f7760448201527f6e6572206e6f7220617070726f76656420666f7220616c6c000000000000000060648201526084016105f6565b61072c8383610e60565b505050565b6000600b54116107835760405162461bcd60e51b815260206004820152601c60248201527f4e6f7420656e6f756768207469636b65747320617661696c61626c650000000060448201526064016105f6565b600c543410156107c65760405162461bcd60e51b815260206004820152600e60248201526d09cdee840cadcdeeaced0408aa8960931b60448201526064016105f6565b60095460ff166108185760405162461bcd60e51b815260206004820152601860248201527f5469636b65747320617265206e6f74206f6e2073616c652e000000000000000060448201526064016105f6565b61082061198a565b6040518060800160405280604d815260200161212e604d9139815260085461084c90610ece565b610ece565b6020828101918252604080518082018252600d81526c1e17ba32bc3a1f1e17b9bb339f60991b81840152818501819052845193519151600094610893949093929101611cd0565b604051602081830303815290604052905060006108af82610fe8565b90506108ba8161115c565b60006108ef6108cb61084760085490565b6040516020016108db9190611d13565b604051602081830303815290604052610fe8565b90506000816040516020016109049190611e70565b604051602081830303815290604052905061091e8161115c565b6109303361092b60085490565b61119f565b61094261093c60085490565b826111b9565b610950600880546001019055565b6001600b5461095f9190612028565b600b555050505050565b6007546001600160a01b031633146109935760405162461bcd60e51b81526004016105f690611f57565b6009805460ff19166001179055565b6109ac3382611244565b6109c85760405162461bcd60e51b81526004016105f690611f8c565b61072c83838361132a565b61072c83838360405180602001604052806000815250610b40565b6000818152600260205260408120546001600160a01b0316806104f65760405162461bcd60e51b815260206004820152602960248201527f4552433732313a206f776e657220717565727920666f72206e6f6e657869737460448201526832b73a103a37b5b2b760b91b60648201526084016105f6565b60006001600160a01b038216610ad05760405162461bcd60e51b815260206004820152602a60248201527f4552433732313a2062616c616e636520717565727920666f7220746865207a65604482015269726f206164647265737360b01b60648201526084016105f6565b506001600160a01b031660009081526003602052604090205490565b6007546001600160a01b03163314610b165760405162461bcd60e51b81526004016105f690611f57565b610b2060006114ca565b565b60606001805461050b9061206b565b610b3c33838361151c565b5050565b610b4a3383611244565b610b665760405162461bcd60e51b81526004016105f690611f8c565b610b72848484846115eb565b50505050565b6060610b8382610e43565b610be95760405162461bcd60e51b815260206004820152603160248201527f45524337323155524953746f726167653a2055524920717565727920666f72206044820152703737b732bc34b9ba32b73a103a37b5b2b760791b60648201526084016105f6565b60008281526006602052604081208054610c029061206b565b80601f0160208091040260200160405190810160405280929190818152602001828054610c2e9061206b565b8015610c7b5780601f10610c5057610100808354040283529160200191610c7b565b820191906000526020600020905b815481529060010190602001808311610c5e57829003601f168201915b505050505090506000610c9960408051602081019091526000815290565b9050805160001415610cac575092915050565b815115610cde578082604051602001610cc6929190611ca1565b60405160208183030381529060405292505050919050565b610ce78461161e565b949350505050565b600d6020528160005260406000208181548110610d0b57600080fd5b90600052602060002001600091509150505481565b6007546001600160a01b03163314610d4a5760405162461bcd60e51b81526004016105f690611f57565b6009805460ff19169055565b6007546001600160a01b03163314610d805760405162461bcd60e51b81526004016105f690611f57565b6001600160a01b038116610de55760405162461bcd60e51b815260206004820152602660248201527f4f776e61626c653a206e6577206f776e657220697320746865207a65726f206160448201526564647265737360d01b60648201526084016105f6565b610dee816114ca565b50565b80546001019055565b5490565b610dee81604051602401610e1491815260200190565b60408051601f198184030181529190526020810180516001600160e01b031663f5b1bba960e01b1790526116f6565b6000908152600260205260409020546001600160a01b0316151590565b600081815260046020526040902080546001600160a01b0319166001600160a01b0384169081179091558190610e95826109ee565b6001600160a01b03167f8c5be1e5ebec7d5bd14f71427d1e84f3dd0314c0f7b2291e5b200ac8c7c3b92560405160405180910390a45050565b606081610ef25750506040805180820190915260018152600360fc1b602082015290565b8160005b8115610f1c5780610f06816120a6565b9150610f159050600a83611ff5565b9150610ef6565b60008167ffffffffffffffff811115610f4557634e487b7160e01b600052604160045260246000fd5b6040519080825280601f01601f191660200182016040528015610f6f576020820181803683370190505b5090505b8415610ce757610f84600183612028565b9150610f91600a866120c1565b610f9c906030611fdd565b60f81b818381518110610fbf57634e487b7160e01b600052603260045260246000fd5b60200101906001600160f81b031916908160001a905350610fe1600a86611ff5565b9450610f73565b805160609080611008575050604080516020810190915260008152919050565b60006003611017836002611fdd565b6110219190611ff5565b61102c906004612009565b9050600061103b826020611fdd565b67ffffffffffffffff81111561106157634e487b7160e01b600052604160045260246000fd5b6040519080825280601f01601f19166020018201604052801561108b576020820181803683370190505b509050600060405180606001604052806040815260200161217b604091399050600181016020830160005b86811015611117576003818a01810151603f601282901c8116860151600c83901c8216870151600684901c831688015192909316870151600891821b60ff94851601821b92841692909201901b91160160e01b8352600490920191016110b6565b50600386066001811461113157600281146111425761114e565b613d3d60f01b60011983015261114e565b603d60f81b6000198301525b505050918152949350505050565b610dee816040516024016111709190611ef2565b60408051601f198184030181529190526020810180516001600160e01b031663104c13eb60e21b1790526116f6565b610b3c828260405180602001604052806000815250611717565b6111c282610e43565b6112255760405162461bcd60e51b815260206004820152602e60248201527f45524337323155524953746f726167653a2055524920736574206f66206e6f6e60448201526d32bc34b9ba32b73a103a37b5b2b760911b60648201526084016105f6565b6000828152600660209081526040909120825161072c928401906119b1565b600061124f82610e43565b6112b05760405162461bcd60e51b815260206004820152602c60248201527f4552433732313a206f70657261746f7220717565727920666f72206e6f6e657860448201526b34b9ba32b73a103a37b5b2b760a11b60648201526084016105f6565b60006112bb836109ee565b9050806001600160a01b0316846001600160a01b031614806112f65750836001600160a01b03166112eb8461058e565b6001600160a01b0316145b80610ce757506001600160a01b0380821660009081526005602090815260408083209388168352929052205460ff16610ce7565b826001600160a01b031661133d826109ee565b6001600160a01b0316146113a55760405162461bcd60e51b815260206004820152602960248201527f4552433732313a207472616e73666572206f6620746f6b656e2074686174206960448201526839903737ba1037bbb760b91b60648201526084016105f6565b6001600160a01b0382166114075760405162461bcd60e51b8152602060048201526024808201527f4552433732313a207472616e7366657220746f20746865207a65726f206164646044820152637265737360e01b60648201526084016105f6565b611412600082610e60565b6001600160a01b038316600090815260036020526040812080546001929061143b908490612028565b90915550506001600160a01b0382166000908152600360205260408120805460019290611469908490611fdd565b909155505060008181526002602052604080822080546001600160a01b0319166001600160a01b0386811691821790925591518493918716917fddf252ad1be2c89b69c2b068fc378daa952ba7f163c4a11628f55a4df523b3ef91a4505050565b600780546001600160a01b038381166001600160a01b0319831681179093556040519116919082907f8be0079c531659141344cd1fd0a4f28419497f9722a3daafe3b4186f6b6457e090600090a35050565b816001600160a01b0316836001600160a01b0316141561157e5760405162461bcd60e51b815260206004820152601960248201527f4552433732313a20617070726f766520746f2063616c6c65720000000000000060448201526064016105f6565b6001600160a01b03838116600081815260056020908152604080832094871680845294825291829020805460ff191686151590811790915591519182527f17307eab39ab6107e8899845ad3d59bd9653f200f220920489ca2b5937696c31910160405180910390a3505050565b6115f684848461132a565b6116028484848461174a565b610b725760405162461bcd60e51b81526004016105f690611f05565b606061162982610e43565b61168d5760405162461bcd60e51b815260206004820152602f60248201527f4552433732314d657461646174613a2055524920717565727920666f72206e6f60448201526e3732bc34b9ba32b73a103a37b5b2b760891b60648201526084016105f6565b60006116a460408051602081019091526000815290565b905060008151116116c457604051806020016040528060008152506116ef565b806116ce84610ece565b6040516020016116df929190611ca1565b6040516020818303038152906040525b9392505050565b80516a636f6e736f6c652e6c6f67602083016000808483855afa5050505050565b6117218383611857565b61172e600084848461174a565b61072c5760405162461bcd60e51b81526004016105f690611f05565b60006001600160a01b0384163b1561184c57604051630a85bd0160e11b81526001600160a01b0385169063150b7a029061178e903390899088908890600401611eb5565b602060405180830381600087803b1580156117a857600080fd5b505af19250505080156117d8575060408051601f3d908101601f191682019092526117d591810190611c41565b60015b611832573d808015611806576040519150601f19603f3d011682016040523d82523d6000602084013e61180b565b606091505b50805161182a5760405162461bcd60e51b81526004016105f690611f05565b805181602001fd5b6001600160e01b031916630a85bd0160e11b149050610ce7565b506001949350505050565b6001600160a01b0382166118ad5760405162461bcd60e51b815260206004820181905260248201527f4552433732313a206d696e7420746f20746865207a65726f206164647265737360448201526064016105f6565b6118b681610e43565b156119035760405162461bcd60e51b815260206004820152601c60248201527f4552433732313a20746f6b656e20616c7265616479206d696e7465640000000060448201526064016105f6565b6001600160a01b038216600090815260036020526040812080546001929061192c908490611fdd565b909155505060008181526002602052604080822080546001600160a01b0319166001600160a01b03861690811790915590518392907fddf252ad1be2c89b69c2b068fc378daa952ba7f163c4a11628f55a4df523b3ef908290a45050565b6040518060a001604052806005905b60608152602001906001900390816119995790505090565b8280546119bd9061206b565b90600052602060002090601f0160209004810192826119df5760008555611a25565b82601f106119f857805160ff1916838001178555611a25565b82800160010185558215611a25579182015b82811115611a25578251825591602001919060010190611a0a565b50611a31929150611a35565b5090565b5b80821115611a315760008155600101611a36565b80356001600160a01b0381168114611a6157600080fd5b919050565b600060208284031215611a77578081fd5b6116ef82611a4a565b60008060408385031215611a92578081fd5b611a9b83611a4a565b9150611aa960208401611a4a565b90509250929050565b600080600060608486031215611ac6578081fd5b611acf84611a4a565b9250611add60208501611a4a565b9150604084013590509250925092565b60008060008060808587031215611b02578081fd5b611b0b85611a4a565b9350611b1960208601611a4a565b925060408501359150606085013567ffffffffffffffff80821115611b3c578283fd5b818701915087601f830112611b4f578283fd5b813581811115611b6157611b61612101565b604051601f8201601f19908116603f01168101908382118183101715611b8957611b89612101565b816040528281528a6020848701011115611ba1578586fd5b82602086016020830137918201602001949094529598949750929550505050565b60008060408385031215611bd4578182fd5b611bdd83611a4a565b915060208301358015158114611bf1578182fd5b809150509250929050565b60008060408385031215611c0e578182fd5b611c1783611a4a565b946020939093013593505050565b600060208284031215611c36578081fd5b81356116ef81612117565b600060208284031215611c52578081fd5b81516116ef81612117565b600060208284031215611c6e578081fd5b5035919050565b60008151808452611c8d81602086016020860161203f565b601f01601f19169290920160200192915050565b60008351611cb381846020880161203f565b835190830190611cc781836020880161203f565b01949350505050565b60008451611ce281846020890161203f565b845190830190611cf681836020890161203f565b8451910190611d0981836020880161203f565b0195945050505050565b707b20226e616d65223a20224e465454202360781b81528151600090611d4081601185016020870161203f565b7f222c20226465736372697074696f6e223a202241204e46542d706f77657265646011939091019283015250730103a34b1b5b2ba34b7339039bcb9ba32b69116160651b60318201527f22747261697473223a205b7b202274726169745f74797065223a20224368656360458201527f6b656420496e222c202276616c7565223a20227472756522207d2c207b20227460658201527f726169745f74797065223a2022507572636861736564222c202276616c75652260858201526c01d10113a393ab291103eae961609d1b60a58201527f22696d616765223a2022697066733a2f2f516d54484e6b42335677754164376360b28201527f4c463176567a756d5831386f7366774c4c48694c6736515333366b675850632260d282015261207d60f01b60f282015260f401919050565b7f646174613a6170706c69636174696f6e2f6a736f6e3b6261736536342c000000815260008251611ea881601d85016020870161203f565b91909101601d0192915050565b6001600160a01b0385811682528416602082015260408101839052608060608201819052600090611ee890830184611c75565b9695505050505050565b6020815260006116ef6020830184611c75565b60208082526032908201527f4552433732313a207472616e7366657220746f206e6f6e20455243373231526560408201527131b2b4bb32b91034b6b83632b6b2b73a32b960711b606082015260800190565b6020808252818101527f4f776e61626c653a2063616c6c6572206973206e6f7420746865206f776e6572604082015260600190565b60208082526031908201527f4552433732313a207472616e736665722063616c6c6572206973206e6f74206f6040820152701ddb995c881b9bdc88185c1c1c9bdd9959607a1b606082015260800190565b60008219821115611ff057611ff06120d5565b500190565b600082612004576120046120eb565b500490565b6000816000190483118215151615612023576120236120d5565b500290565b60008282101561203a5761203a6120d5565b500390565b60005b8381101561205a578181015183820152602001612042565b83811115610b725750506000910152565b600181811c9082168061207f57607f821691505b602082108114156120a057634e487b7160e01b600052602260045260246000fd5b50919050565b60006000198214156120ba576120ba6120d5565b5060010190565b6000826120d0576120d06120eb565b500690565b634e487b7160e01b600052601160045260246000fd5b634e487b7160e01b600052601260045260246000fd5b634e487b7160e01b600052604160045260246000fd5b6001600160e01b031981168114610dee57600080fdfe3c7376672076696577426f783d222030203020313030203130302220786d6c6e733d2268747470733a2f2f7777772e77332e6f72672f323030302f737667223e3c7465787420793d223530223e4142434445464748494a4b4c4d4e4f505152535455565758595a6162636465666768696a6b6c6d6e6f707172737475767778797a303132333435363738392b2fa2646970667358221220bb7575b9d6d2506c3b6bb87cee4e8c56035cd5ecf9af2996d1b9dfdb19fe887664736f6c63430008040033",
    "linkReferences": {},
    "deployedLinkReferences": {}
}