{
  "_format": "hh-sol-artifact-1",
  "contractName": "nftTicketing",
  "sourceName": "contracts/nftTicketing.sol",
  "abi": [
    {
      "inputs": [],
      "stateMutability": "nonpayable",
      "type": "constructor"
    },
    {
      "anonymous": false,
      "inputs": [
        {
          "indexed": true,
          "internalType": "address",
          "name": "owner",
          "type": "address"
        },
        {
          "indexed": true,
          "internalType": "address",
          "name": "approved",
          "type": "address"
        },
        {
          "indexed": true,
          "internalType": "uint256",
          "name": "tokenId",
          "type": "uint256"
        }
      ],
      "name": "Approval",
      "type": "event"
    },
    {
      "anonymous": false,
      "inputs": [
        {
          "indexed": true,
          "internalType": "address",
          "name": "owner",
          "type": "address"
        },
        {
          "indexed": true,
          "internalType": "address",
          "name": "operator",
          "type": "address"
        },
        {
          "indexed": false,
          "internalType": "bool",
          "name": "approved",
          "type": "bool"
        }
      ],
      "name": "ApprovalForAll",
      "type": "event"
    },
    {
      "anonymous": false,
      "inputs": [
        {
          "indexed": true,
          "internalType": "address",
          "name": "previousOwner",
          "type": "address"
        },
        {
          "indexed": true,
          "internalType": "address",
          "name": "newOwner",
          "type": "address"
        }
      ],
      "name": "OwnershipTransferred",
      "type": "event"
    },
    {
      "anonymous": false,
      "inputs": [
        {
          "indexed": true,
          "internalType": "address",
          "name": "from",
          "type": "address"
        },
        {
          "indexed": true,
          "internalType": "address",
          "name": "to",
          "type": "address"
        },
        {
          "indexed": true,
          "internalType": "uint256",
          "name": "tokenId",
          "type": "uint256"
        }
      ],
      "name": "Transfer",
      "type": "event"
    },
    {
      "inputs": [
        {
          "internalType": "address",
          "name": "to",
          "type": "address"
        },
        {
          "internalType": "uint256",
          "name": "tokenId",
          "type": "uint256"
        }
      ],
      "name": "approve",
      "outputs": [],
      "stateMutability": "nonpayable",
      "type": "function"
    },
    {
      "inputs": [],
      "name": "availableTicketCount",
      "outputs": [
        {
          "internalType": "uint256",
          "name": "",
          "type": "uint256"
        }
      ],
      "stateMutability": "view",
      "type": "function"
    },
    {
      "inputs": [],
      "name": "availableTickets",
      "outputs": [
        {
          "internalType": "uint256",
          "name": "",
          "type": "uint256"
        }
      ],
      "stateMutability": "view",
      "type": "function"
    },
    {
      "inputs": [
        {
          "internalType": "address",
          "name": "owner",
          "type": "address"
        }
      ],
      "name": "balanceOf",
      "outputs": [
        {
          "internalType": "uint256",
          "name": "",
          "type": "uint256"
        }
      ],
      "stateMutability": "view",
      "type": "function"
    },
    {
      "inputs": [
        {
          "internalType": "address",
          "name": "walletAddress",
          "type": "address"
        }
      ],
      "name": "checkIn",
      "outputs": [],
      "stateMutability": "nonpayable",
      "type": "function"
    },
    {
      "inputs": [
        {
          "internalType": "address",
          "name": "",
          "type": "address"
        }
      ],
      "name": "checkIns",
      "outputs": [
        {
          "internalType": "bool",
          "name": "",
          "type": "bool"
        }
      ],
      "stateMutability": "view",
      "type": "function"
    },
    {
      "inputs": [],
      "name": "closeSale",
      "outputs": [],
      "stateMutability": "nonpayable",
      "type": "function"
    },
    {
      "inputs": [
        {
          "internalType": "address",
          "name": "walletAddress",
          "type": "address"
        }
      ],
      "name": "confirmOwnership",
      "outputs": [
        {
          "internalType": "bool",
          "name": "",
          "type": "bool"
        }
      ],
      "stateMutability": "view",
      "type": "function"
    },
    {
      "inputs": [],
      "name": "eventTime",
      "outputs": [
        {
          "internalType": "uint256",
          "name": "",
          "type": "uint256"
        }
      ],
      "stateMutability": "view",
      "type": "function"
    },
    {
      "inputs": [
        {
          "internalType": "uint256",
          "name": "tokenId",
          "type": "uint256"
        }
      ],
      "name": "getApproved",
      "outputs": [
        {
          "internalType": "address",
          "name": "",
          "type": "address"
        }
      ],
      "stateMutability": "view",
      "type": "function"
    },
    {
      "inputs": [
        {
          "internalType": "address",
          "name": "owner",
          "type": "address"
        },
        {
          "internalType": "address",
          "name": "operator",
          "type": "address"
        }
      ],
      "name": "isApprovedForAll",
      "outputs": [
        {
          "internalType": "bool",
          "name": "",
          "type": "bool"
        }
      ],
      "stateMutability": "view",
      "type": "function"
    },
    {
      "inputs": [],
      "name": "mint",
      "outputs": [],
      "stateMutability": "payable",
      "type": "function"
    },
    {
      "inputs": [],
      "name": "mintPrice",
      "outputs": [
        {
          "internalType": "uint256",
          "name": "",
          "type": "uint256"
        }
      ],
      "stateMutability": "view",
      "type": "function"
    },
    {
      "inputs": [],
      "name": "name",
      "outputs": [
        {
          "internalType": "string",
          "name": "",
          "type": "string"
        }
      ],
      "stateMutability": "view",
      "type": "function"
    },
    {
      "inputs": [],
      "name": "openSale",
      "outputs": [],
      "stateMutability": "nonpayable",
      "type": "function"
    },
    {
      "inputs": [],
      "name": "owner",
      "outputs": [
        {
          "internalType": "address",
          "name": "",
          "type": "address"
        }
      ],
      "stateMutability": "view",
      "type": "function"
    },
    {
      "inputs": [
        {
          "internalType": "uint256",
          "name": "tokenId",
          "type": "uint256"
        }
      ],
      "name": "ownerOf",
      "outputs": [
        {
          "internalType": "address",
          "name": "",
          "type": "address"
        }
      ],
      "stateMutability": "view",
      "type": "function"
    },
    {
      "inputs": [
        {
          "internalType": "address",
          "name": "",
          "type": "address"
        },
        {
          "internalType": "uint256",
          "name": "",
          "type": "uint256"
        }
      ],
      "name": "ownerTokenIDS",
      "outputs": [
        {
          "internalType": "uint256",
          "name": "",
          "type": "uint256"
        }
      ],
      "stateMutability": "view",
      "type": "function"
    },
    {
      "inputs": [],
      "name": "renounceOwnership",
      "outputs": [],
      "stateMutability": "nonpayable",
      "type": "function"
    },
    {
      "inputs": [
        {
          "internalType": "address",
          "name": "from",
          "type": "address"
        },
        {
          "internalType": "address",
          "name": "to",
          "type": "address"
        },
        {
          "internalType": "uint256",
          "name": "tokenId",
          "type": "uint256"
        }
      ],
      "name": "safeTransferFrom",
      "outputs": [],
      "stateMutability": "nonpayable",
      "type": "function"
    },
    {
      "inputs": [
        {
          "internalType": "address",
          "name": "from",
          "type": "address"
        },
        {
          "internalType": "address",
          "name": "to",
          "type": "address"
        },
        {
          "internalType": "uint256",
          "name": "tokenId",
          "type": "uint256"
        },
        {
          "internalType": "bytes",
          "name": "_data",
          "type": "bytes"
        }
      ],
      "name": "safeTransferFrom",
      "outputs": [],
      "stateMutability": "nonpayable",
      "type": "function"
    },
    {
      "inputs": [],
      "name": "saleIsActive",
      "outputs": [
        {
          "internalType": "bool",
          "name": "",
          "type": "bool"
        }
      ],
      "stateMutability": "view",
      "type": "function"
    },
    {
      "inputs": [
        {
          "internalType": "address",
          "name": "operator",
          "type": "address"
        },
        {
          "internalType": "bool",
          "name": "approved",
          "type": "bool"
        }
      ],
      "name": "setApprovalForAll",
      "outputs": [],
      "stateMutability": "nonpayable",
      "type": "function"
    },
    {
      "inputs": [
        {
          "internalType": "bytes4",
          "name": "interfaceId",
          "type": "bytes4"
        }
      ],
      "name": "supportsInterface",
      "outputs": [
        {
          "internalType": "bool",
          "name": "",
          "type": "bool"
        }
      ],
      "stateMutability": "view",
      "type": "function"
    },
    {
      "inputs": [],
      "name": "symbol",
      "outputs": [
        {
          "internalType": "string",
          "name": "",
          "type": "string"
        }
      ],
      "stateMutability": "view",
      "type": "function"
    },
    {
      "inputs": [
        {
          "internalType": "uint256",
          "name": "tokenId",
          "type": "uint256"
        }
      ],
      "name": "tokenURI",
      "outputs": [
        {
          "internalType": "string",
          "name": "",
          "type": "string"
        }
      ],
      "stateMutability": "view",
      "type": "function"
    },
    {
      "inputs": [],
      "name": "totalTicketCount",
      "outputs": [
        {
          "internalType": "uint256",
          "name": "",
          "type": "uint256"
        }
      ],
      "stateMutability": "view",
      "type": "function"
    },
    {
      "inputs": [],
      "name": "totalTickets",
      "outputs": [
        {
          "internalType": "uint256",
          "name": "",
          "type": "uint256"
        }
      ],
      "stateMutability": "view",
      "type": "function"
    },
    {
      "inputs": [
        {
          "internalType": "address",
          "name": "from",
          "type": "address"
        },
        {
          "internalType": "address",
          "name": "to",
          "type": "address"
        },
        {
          "internalType": "uint256",
          "name": "tokenId",
          "type": "uint256"
        }
      ],
      "name": "transferFrom",
      "outputs": [],
      "stateMutability": "nonpayable",
      "type": "function"
    },
    {
      "inputs": [
        {
          "internalType": "address",
          "name": "newOwner",
          "type": "address"
        }
      ],
      "name": "transferOwnership",
      "outputs": [],
      "stateMutability": "nonpayable",
      "type": "function"
    }
  ],
  "bytecode": "0x60806040526009805460ff191690556064600a819055600b55668e1bc9bf040000600c553480156200003057600080fd5b50604080518082018252600a81526913dc195b951a58dad95d60b21b60208083019182528351808501909452600484526313d4139560e21b9084015281519192916200007f91600091620001ce565b50805162000095906001906020840190620001ce565b505050620000b2620000ac620000fb60201b60201c565b620000ff565b620000c960086200015160201b620010801760201c565b620000f5620000e460086200015a60201b620010891760201c565b6200015e60201b6200108d1760201c565b620002b1565b3390565b600780546001600160a01b038381166001600160a01b0319831681179093556040519116919082907f8be0079c531659141344cd1fd0a4f28419497f9722a3daafe3b4186f6b6457e090600090a35050565b80546001019055565b5490565b620001aa816040516024016200017691815260200190565b60408051601f198184030181529190526020810180516001600160e01b0390811663f5b1bba960e01b17909152620001ad16565b50565b80516a636f6e736f6c652e6c6f67602083016000808483855afa5050505050565b828054620001dc9062000274565b90600052602060002090601f0160209004810192826200020057600085556200024b565b82601f106200021b57805160ff19168380011785556200024b565b828001600101855582156200024b579182015b828111156200024b5782518255916020019190600101906200022e565b50620002599291506200025d565b5090565b5b808211156200025957600081556001016200025e565b600181811c908216806200028957607f821691505b60208210811415620002ab57634e487b7160e01b600052602260045260246000fd5b50919050565b61263c80620002c16000396000f3fe6080604052600436106101cd5760003560e01c806370a08231116100f7578063c87b56dd11610095578063e985e9c511610064578063e985e9c514610500578063eb8d244414610549578063ee55efee14610563578063f2fde38b1461057857600080fd5b8063c87b56dd1461048a578063c8de91ac146104aa578063d9a59e33146104ca578063dd11247e146104ea57600080fd5b80638da5cb5b116100d15780638da5cb5b1461041757806395d89b4114610435578063a22cb4651461044a578063b88d4fde1461046a57600080fd5b806370a08231146103aa578063715018a6146103ca57806380f2abe3146103df57600080fd5b8063167ff46f1161016f5780633d721ecd1161013e5780633d721ecd1461033f57806342842e0e146103545780636352211e146103745780636817c76c1461039457600080fd5b8063167ff46f146102c45780631acc9b62146102d957806323b872dd146103095780633cfa7e011461032957600080fd5b8063095ea7b3116101ab578063095ea7b3146102615780630c317e7b146102835780631249c58b146102a757806314558fab146102af57600080fd5b806301ffc9a7146101d257806306fdde0314610207578063081812fc14610229575b600080fd5b3480156101de57600080fd5b506101f26101ed366004611eb4565b610598565b60405190151581526020015b60405180910390f35b34801561021357600080fd5b5061021c6105ea565b6040516101fe919061233e565b34801561023557600080fd5b50610249610244366004611eec565b61067c565b6040516001600160a01b0390911681526020016101fe565b34801561026d57600080fd5b5061028161027c366004611e8b565b610709565b005b34801561028f57600080fd5b50610299600d5481565b6040519081526020016101fe565b61028161081f565b3480156102bb57600080fd5b50600a54610299565b3480156102d057600080fd5b50610281610aeb565b3480156102e557600080fd5b506101f26102f4366004611cf5565b600e6020526000908152604090205460ff1681565b34801561031557600080fd5b50610281610324366004611d41565b610b24565b34801561033557600080fd5b50610299600b5481565b34801561034b57600080fd5b50600b54610299565b34801561036057600080fd5b5061028161036f366004611d41565b610b55565b34801561038057600080fd5b5061024961038f366004611eec565b610b70565b3480156103a057600080fd5b50610299600c5481565b3480156103b657600080fd5b506102996103c5366004611cf5565b610be7565b3480156103d657600080fd5b50610281610c6e565b3480156103eb57600080fd5b506101f26103fa366004611cf5565b6001600160a01b03166000908152600f6020526040902054151590565b34801561042357600080fd5b506007546001600160a01b0316610249565b34801561044157600080fd5b5061021c610ca4565b34801561045657600080fd5b50610281610465366004611e51565b610cb3565b34801561047657600080fd5b50610281610485366004611d7c565b610cc2565b34801561049657600080fd5b5061021c6104a5366004611eec565b610cfa565b3480156104b657600080fd5b506102996104c5366004611e8b565b610e71565b3480156104d657600080fd5b506102816104e5366004611cf5565b610ea2565b3480156104f657600080fd5b50610299600a5481565b34801561050c57600080fd5b506101f261051b366004611d0f565b6001600160a01b03918216600090815260056020908152604080832093909416825291909152205460ff1690565b34801561055557600080fd5b506009546101f29060ff1681565b34801561056f57600080fd5b50610281610faf565b34801561058457600080fd5b50610281610593366004611cf5565b610fe5565b60006001600160e01b031982166380ac58cd60e01b14806105c957506001600160e01b03198216635b5e139f60e01b145b806105e457506301ffc9a760e01b6001600160e01b03198316145b92915050565b6060600080546105f9906124b7565b80601f0160208091040260200160405190810160405280929190818152602001828054610625906124b7565b80156106725780601f1061064757610100808354040283529160200191610672565b820191906000526020600020905b81548152906001019060200180831161065557829003601f168201915b5050505050905090565b6000610687826110d2565b6106ed5760405162461bcd60e51b815260206004820152602c60248201527f4552433732313a20617070726f76656420717565727920666f72206e6f6e657860448201526b34b9ba32b73a103a37b5b2b760a11b60648201526084015b60405180910390fd5b506000908152600460205260409020546001600160a01b031690565b600061071482610b70565b9050806001600160a01b0316836001600160a01b031614156107825760405162461bcd60e51b815260206004820152602160248201527f4552433732313a20617070726f76616c20746f2063757272656e74206f776e656044820152603960f91b60648201526084016106e4565b336001600160a01b038216148061079e575061079e813361051b565b6108105760405162461bcd60e51b815260206004820152603860248201527f4552433732313a20617070726f76652063616c6c6572206973206e6f74206f7760448201527f6e6572206e6f7220617070726f76656420666f7220616c6c000000000000000060648201526084016106e4565b61081a83836110ef565b505050565b6000600b54116108815760405162461bcd60e51b815260206004820152602760248201527f546865726520617265206e6f7420656e6f756768207469636b65747320617661604482015266696c61626c652160c81b60648201526084016106e4565b600c543410156108d35760405162461bcd60e51b815260206004820152601b60248201527f496e73756666696369656e742045544820696e2077616c6c657421000000000060448201526064016106e4565b60095460ff166109365760405162461bcd60e51b815260206004820152602860248201527f43757272656e746c792c20746865726520617265206e6f207469636b6574732060448201526737b71039b0b6329760c11b60648201526084016106e4565b61093e611c19565b6040518060800160405280604d815260200161257a604d9139815260085461096a9061115d565b61115d565b6020828101918252604080518082018252600d81526c1e17ba32bc3a1f1e17b9bb339f60991b818401528185018190528451935191516000946109b1949093929101611ff4565b604051602081830303815290604052905060006109cd82611277565b90506109d8816113eb565b6000336040516020016109eb9190612037565b6040516020818303038152906040529050600081610a0b61096560085490565b604051602001610a1c92919061205f565b60405160208183030381529060405290506000610a6f610a3e61096560085490565b610a4a61096560085490565b604051602001610a5b9291906121ed565b604051602081830303815290604052611277565b9050600081604051602001610a8491906122bc565b6040516020818303038152906040529050610a9e816113eb565b610ab033610aab60085490565b61142e565b610ac2610abc60085490565b82611448565b610ad0600880546001019055565b6001600b54610adf9190612474565b600b5550505050505050565b6007546001600160a01b03163314610b155760405162461bcd60e51b81526004016106e4906123a3565b6009805460ff19166001179055565b610b2e33826114d3565b610b4a5760405162461bcd60e51b81526004016106e4906123d8565b61081a8383836115b9565b61081a83838360405180602001604052806000815250610cc2565b6000818152600260205260408120546001600160a01b0316806105e45760405162461bcd60e51b815260206004820152602960248201527f4552433732313a206f776e657220717565727920666f72206e6f6e657869737460448201526832b73a103a37b5b2b760b91b60648201526084016106e4565b60006001600160a01b038216610c525760405162461bcd60e51b815260206004820152602a60248201527f4552433732313a2062616c616e636520717565727920666f7220746865207a65604482015269726f206164647265737360b01b60648201526084016106e4565b506001600160a01b031660009081526003602052604090205490565b6007546001600160a01b03163314610c985760405162461bcd60e51b81526004016106e4906123a3565b610ca26000611759565b565b6060600180546105f9906124b7565b610cbe3383836117ab565b5050565b610ccc33836114d3565b610ce85760405162461bcd60e51b81526004016106e4906123d8565b610cf48484848461187a565b50505050565b6060610d05826110d2565b610d6b5760405162461bcd60e51b815260206004820152603160248201527f45524337323155524953746f726167653a2055524920717565727920666f72206044820152703737b732bc34b9ba32b73a103a37b5b2b760791b60648201526084016106e4565b60008281526006602052604081208054610d84906124b7565b80601f0160208091040260200160405190810160405280929190818152602001828054610db0906124b7565b8015610dfd5780601f10610dd257610100808354040283529160200191610dfd565b820191906000526020600020905b815481529060010190602001808311610de057829003601f168201915b505050505090506000610e1b60408051602081019091526000815290565b9050805160001415610e2e575092915050565b815115610e60578082604051602001610e48929190611fc5565b60405160208183030381529060405292505050919050565b610e69846118ad565b949350505050565b600f6020528160005260406000208181548110610e8d57600080fd5b90600052602060002001600091509150505481565b6001600160a01b0381166000908152600e60209081526040808320805460ff19166001179055600f909152812080548290610eed57634e487b7160e01b600052603260045260246000fd5b90600052602060002001549050600033604051602001610f0d9190612037565b604051602081830303815290604052905060008183604051602001610f339291906120b2565b60405160208183030381529060405290506000610f6c610f528561115d565b610f5b8661115d565b604051602001610a5b9291906120f6565b9050600081604051602001610f8191906122bc565b6040516020818303038152906040529050610f9b816113eb565b610fa7610abc60085490565b505050505050565b6007546001600160a01b03163314610fd95760405162461bcd60e51b81526004016106e4906123a3565b6009805460ff19169055565b6007546001600160a01b0316331461100f5760405162461bcd60e51b81526004016106e4906123a3565b6001600160a01b0381166110745760405162461bcd60e51b815260206004820152602660248201527f4f776e61626c653a206e6577206f776e657220697320746865207a65726f206160448201526564647265737360d01b60648201526084016106e4565b61107d81611759565b50565b80546001019055565b5490565b61107d816040516024016110a391815260200190565b60408051601f198184030181529190526020810180516001600160e01b031663f5b1bba960e01b179052611985565b6000908152600260205260409020546001600160a01b0316151590565b600081815260046020526040902080546001600160a01b0319166001600160a01b038416908117909155819061112482610b70565b6001600160a01b03167f8c5be1e5ebec7d5bd14f71427d1e84f3dd0314c0f7b2291e5b200ac8c7c3b92560405160405180910390a45050565b6060816111815750506040805180820190915260018152600360fc1b602082015290565b8160005b81156111ab5780611195816124f2565b91506111a49050600a83612441565b9150611185565b60008167ffffffffffffffff8111156111d457634e487b7160e01b600052604160045260246000fd5b6040519080825280601f01601f1916602001820160405280156111fe576020820181803683370190505b5090505b8415610e6957611213600183612474565b9150611220600a8661250d565b61122b906030612429565b60f81b81838151811061124e57634e487b7160e01b600052603260045260246000fd5b60200101906001600160f81b031916908160001a905350611270600a86612441565b9450611202565b805160609080611297575050604080516020810190915260008152919050565b600060036112a6836002612429565b6112b09190612441565b6112bb906004612455565b905060006112ca826020612429565b67ffffffffffffffff8111156112f057634e487b7160e01b600052604160045260246000fd5b6040519080825280601f01601f19166020018201604052801561131a576020820181803683370190505b50905060006040518060600160405280604081526020016125c7604091399050600181016020830160005b868110156113a6576003818a01810151603f601282901c8116860151600c83901c8216870151600684901c831688015192909316870151600891821b60ff94851601821b92841692909201901b91160160e01b835260049092019101611345565b5060038606600181146113c057600281146113d1576113dd565b613d3d60f01b6001198301526113dd565b603d60f81b6000198301525b505050918152949350505050565b61107d816040516024016113ff919061233e565b60408051601f198184030181529190526020810180516001600160e01b031663104c13eb60e21b179052611985565b610cbe8282604051806020016040528060008152506119a6565b611451826110d2565b6114b45760405162461bcd60e51b815260206004820152602e60248201527f45524337323155524953746f726167653a2055524920736574206f66206e6f6e60448201526d32bc34b9ba32b73a103a37b5b2b760911b60648201526084016106e4565b6000828152600660209081526040909120825161081a92840190611c40565b60006114de826110d2565b61153f5760405162461bcd60e51b815260206004820152602c60248201527f4552433732313a206f70657261746f7220717565727920666f72206e6f6e657860448201526b34b9ba32b73a103a37b5b2b760a11b60648201526084016106e4565b600061154a83610b70565b9050806001600160a01b0316846001600160a01b031614806115855750836001600160a01b031661157a8461067c565b6001600160a01b0316145b80610e6957506001600160a01b0380821660009081526005602090815260408083209388168352929052205460ff16610e69565b826001600160a01b03166115cc82610b70565b6001600160a01b0316146116345760405162461bcd60e51b815260206004820152602960248201527f4552433732313a207472616e73666572206f6620746f6b656e2074686174206960448201526839903737ba1037bbb760b91b60648201526084016106e4565b6001600160a01b0382166116965760405162461bcd60e51b8152602060048201526024808201527f4552433732313a207472616e7366657220746f20746865207a65726f206164646044820152637265737360e01b60648201526084016106e4565b6116a16000826110ef565b6001600160a01b03831660009081526003602052604081208054600192906116ca908490612474565b90915550506001600160a01b03821660009081526003602052604081208054600192906116f8908490612429565b909155505060008181526002602052604080822080546001600160a01b0319166001600160a01b0386811691821790925591518493918716917fddf252ad1be2c89b69c2b068fc378daa952ba7f163c4a11628f55a4df523b3ef91a4505050565b600780546001600160a01b038381166001600160a01b0319831681179093556040519116919082907f8be0079c531659141344cd1fd0a4f28419497f9722a3daafe3b4186f6b6457e090600090a35050565b816001600160a01b0316836001600160a01b0316141561180d5760405162461bcd60e51b815260206004820152601960248201527f4552433732313a20617070726f766520746f2063616c6c65720000000000000060448201526064016106e4565b6001600160a01b03838116600081815260056020908152604080832094871680845294825291829020805460ff191686151590811790915591519182527f17307eab39ab6107e8899845ad3d59bd9653f200f220920489ca2b5937696c31910160405180910390a3505050565b6118858484846115b9565b611891848484846119d9565b610cf45760405162461bcd60e51b81526004016106e490612351565b60606118b8826110d2565b61191c5760405162461bcd60e51b815260206004820152602f60248201527f4552433732314d657461646174613a2055524920717565727920666f72206e6f60448201526e3732bc34b9ba32b73a103a37b5b2b760891b60648201526084016106e4565b600061193360408051602081019091526000815290565b90506000815111611953576040518060200160405280600081525061197e565b8061195d8461115d565b60405160200161196e929190611fc5565b6040516020818303038152906040525b9392505050565b80516a636f6e736f6c652e6c6f67602083016000808483855afa5050505050565b6119b08383611ae6565b6119bd60008484846119d9565b61081a5760405162461bcd60e51b81526004016106e490612351565b60006001600160a01b0384163b15611adb57604051630a85bd0160e11b81526001600160a01b0385169063150b7a0290611a1d903390899088908890600401612301565b602060405180830381600087803b158015611a3757600080fd5b505af1925050508015611a67575060408051601f3d908101601f19168201909252611a6491810190611ed0565b60015b611ac1573d808015611a95576040519150601f19603f3d011682016040523d82523d6000602084013e611a9a565b606091505b508051611ab95760405162461bcd60e51b81526004016106e490612351565b805181602001fd5b6001600160e01b031916630a85bd0160e11b149050610e69565b506001949350505050565b6001600160a01b038216611b3c5760405162461bcd60e51b815260206004820181905260248201527f4552433732313a206d696e7420746f20746865207a65726f206164647265737360448201526064016106e4565b611b45816110d2565b15611b925760405162461bcd60e51b815260206004820152601c60248201527f4552433732313a20746f6b656e20616c7265616479206d696e7465640000000060448201526064016106e4565b6001600160a01b0382166000908152600360205260408120805460019290611bbb908490612429565b909155505060008181526002602052604080822080546001600160a01b0319166001600160a01b03861690811790915590518392907fddf252ad1be2c89b69c2b068fc378daa952ba7f163c4a11628f55a4df523b3ef908290a45050565b6040518060a001604052806005905b6060815260200190600190039081611c285790505090565b828054611c4c906124b7565b90600052602060002090601f016020900481019282611c6e5760008555611cb4565b82601f10611c8757805160ff1916838001178555611cb4565b82800160010185558215611cb4579182015b82811115611cb4578251825591602001919060010190611c99565b50611cc0929150611cc4565b5090565b5b80821115611cc05760008155600101611cc5565b80356001600160a01b0381168114611cf057600080fd5b919050565b600060208284031215611d06578081fd5b61197e82611cd9565b60008060408385031215611d21578081fd5b611d2a83611cd9565b9150611d3860208401611cd9565b90509250929050565b600080600060608486031215611d55578081fd5b611d5e84611cd9565b9250611d6c60208501611cd9565b9150604084013590509250925092565b60008060008060808587031215611d91578081fd5b611d9a85611cd9565b9350611da860208601611cd9565b925060408501359150606085013567ffffffffffffffff80821115611dcb578283fd5b818701915087601f830112611dde578283fd5b813581811115611df057611df061254d565b604051601f8201601f19908116603f01168101908382118183101715611e1857611e1861254d565b816040528281528a6020848701011115611e30578586fd5b82602086016020830137918201602001949094529598949750929550505050565b60008060408385031215611e63578182fd5b611e6c83611cd9565b915060208301358015158114611e80578182fd5b809150509250929050565b60008060408385031215611e9d578182fd5b611ea683611cd9565b946020939093013593505050565b600060208284031215611ec5578081fd5b813561197e81612563565b600060208284031215611ee1578081fd5b815161197e81612563565b600060208284031215611efd578081fd5b5035919050565b60008151808452611f1c81602086016020860161248b565b601f01601f19169290920160200192915050565b7f22696d616765223a2022697066733a2f2f516d6477384a42514a39567943357981527f63414e5645416b4d7a43645237426f4573534452504e613378594b504851322f602082015260400190565b7f222c20226465736372697074696f6e223a202241204e46542d706f77657265648152730103a34b1b5b2ba34b7339039bcb9ba32b69116160651b602082015260340190565b60008351611fd781846020880161248b565b835190830190611feb81836020880161248b565b01949350505050565b6000845161200681846020890161248b565b84519083019061201a81836020890161248b565b845191019061202d81836020880161248b565b0195945050505050565b61060f60f31b815260609190911b6bffffffffffffffffffffffff1916600282015260160190565b7468747470733a2f2f726f626f686173682e6f72672f60581b81526000835161208f81601585016020880161248b565b8351908301906120a681601584016020880161248b565b01601501949350505050565b7468747470733a2f2f726f626f686173682e6f72672f60581b8152600083516120e281601585016020880161248b565b601592019182019290925260350192915050565b707b20226e616d65223a20224f504e54202360781b8152825160009061212381601185016020880161248b565b612131601182850101611f7f565b7f22747261697473223a205b7b202274726169745f74797065223a20224368656381527f6b656420496e222c202276616c7565223a20227472756522207d2c207b20227460208201527f726169745f74797065223a2022507572636861736564222c202276616c75652260408201526c01d10113a393ab291103eae961609d1b606082015290506121c4606d8201611f30565b905083516121d681836020880161248b565b6222207d60e81b9101908152600301949350505050565b707b20226e616d65223a20224f504e54202360781b8152825160009061221a81601185016020880161248b565b612228601182850101611f7f565b7f22747261697473223a205b7b202274726169745f74797065223a20224368656381527f6b656420496e222c202276616c7565223a202266616c736522207d2c207b202260208201527f74726169745f74797065223a2022507572636861736564222c202276616c756560408201526d0111d10113a393ab291103eae96160951b606082015290506121c4606e8201611f30565b7f646174613a6170706c69636174696f6e2f6a736f6e3b6261736536342c0000008152600082516122f481601d85016020870161248b565b91909101601d0192915050565b6001600160a01b038581168252841660208201526040810183905260806060820181905260009061233490830184611f04565b9695505050505050565b60208152600061197e6020830184611f04565b60208082526032908201527f4552433732313a207472616e7366657220746f206e6f6e20455243373231526560408201527131b2b4bb32b91034b6b83632b6b2b73a32b960711b606082015260800190565b6020808252818101527f4f776e61626c653a2063616c6c6572206973206e6f7420746865206f776e6572604082015260600190565b60208082526031908201527f4552433732313a207472616e736665722063616c6c6572206973206e6f74206f6040820152701ddb995c881b9bdc88185c1c1c9bdd9959607a1b606082015260800190565b6000821982111561243c5761243c612521565b500190565b60008261245057612450612537565b500490565b600081600019048311821515161561246f5761246f612521565b500290565b60008282101561248657612486612521565b500390565b60005b838110156124a657818101518382015260200161248e565b83811115610cf45750506000910152565b600181811c908216806124cb57607f821691505b602082108114156124ec57634e487b7160e01b600052602260045260246000fd5b50919050565b600060001982141561250657612506612521565b5060010190565b60008261251c5761251c612537565b500690565b634e487b7160e01b600052601160045260246000fd5b634e487b7160e01b600052601260045260246000fd5b634e487b7160e01b600052604160045260246000fd5b6001600160e01b03198116811461107d57600080fdfe3c7376672076696577426f783d222030203020313030203130302220786d6c6e733d2268747470733a2f2f7777772e77332e6f72672f323030302f737667223e3c7465787420793d223530223e4142434445464748494a4b4c4d4e4f505152535455565758595a6162636465666768696a6b6c6d6e6f707172737475767778797a303132333435363738392b2fa2646970667358221220cd2bed48796efecb6433042f26193ce370ec0b8cb1242133d14851d0c75432f864736f6c63430008040033",
  "linkReferences": {},
  "deployedLinkReferences": {}
}