{
  "_format": "hh-sol-artifact-1",
  "contractName": "nftTicketing",
  "sourceName": "contracts/nftTicketing.sol",
  "abi": [
    {
      "inputs": [],
      "stateMutability": "nonpayable",
      "type": "constructor"
    },
    {
      "anonymous": false,
      "inputs": [
        {
          "indexed": true,
          "internalType": "address",
          "name": "owner",
          "type": "address"
        },
        {
          "indexed": true,
          "internalType": "address",
          "name": "approved",
          "type": "address"
        },
        {
          "indexed": true,
          "internalType": "uint256",
          "name": "tokenId",
          "type": "uint256"
        }
      ],
      "name": "Approval",
      "type": "event"
    },
    {
      "anonymous": false,
      "inputs": [
        {
          "indexed": true,
          "internalType": "address",
          "name": "owner",
          "type": "address"
        },
        {
          "indexed": true,
          "internalType": "address",
          "name": "operator",
          "type": "address"
        },
        {
          "indexed": false,
          "internalType": "bool",
          "name": "approved",
          "type": "bool"
        }
      ],
      "name": "ApprovalForAll",
      "type": "event"
    },
    {
      "anonymous": false,
      "inputs": [
        {
          "indexed": true,
          "internalType": "address",
          "name": "previousOwner",
          "type": "address"
        },
        {
          "indexed": true,
          "internalType": "address",
          "name": "newOwner",
          "type": "address"
        }
      ],
      "name": "OwnershipTransferred",
      "type": "event"
    },
    {
      "anonymous": false,
      "inputs": [
        {
          "indexed": true,
          "internalType": "address",
          "name": "from",
          "type": "address"
        },
        {
          "indexed": true,
          "internalType": "address",
          "name": "to",
          "type": "address"
        },
        {
          "indexed": true,
          "internalType": "uint256",
          "name": "tokenId",
          "type": "uint256"
        }
      ],
      "name": "Transfer",
      "type": "event"
    },
    {
      "inputs": [
        {
          "internalType": "address",
          "name": "to",
          "type": "address"
        },
        {
          "internalType": "uint256",
          "name": "tokenId",
          "type": "uint256"
        }
      ],
      "name": "approve",
      "outputs": [],
      "stateMutability": "nonpayable",
      "type": "function"
    },
    {
      "inputs": [],
      "name": "availableTicketCount",
      "outputs": [
        {
          "internalType": "uint256",
          "name": "",
          "type": "uint256"
        }
      ],
      "stateMutability": "view",
      "type": "function"
    },
    {
      "inputs": [],
      "name": "availableTickets",
      "outputs": [
        {
          "internalType": "uint256",
          "name": "",
          "type": "uint256"
        }
      ],
      "stateMutability": "view",
      "type": "function"
    },
    {
      "inputs": [
        {
          "internalType": "address",
          "name": "owner",
          "type": "address"
        }
      ],
      "name": "balanceOf",
      "outputs": [
        {
          "internalType": "uint256",
          "name": "",
          "type": "uint256"
        }
      ],
      "stateMutability": "view",
      "type": "function"
    },
    {
      "inputs": [
        {
          "internalType": "address",
          "name": "walletAddress",
          "type": "address"
        }
      ],
      "name": "checkIn",
      "outputs": [],
      "stateMutability": "nonpayable",
      "type": "function"
    },
    {
      "inputs": [
        {
          "internalType": "address",
          "name": "",
          "type": "address"
        }
      ],
      "name": "checkIns",
      "outputs": [
        {
          "internalType": "bool",
          "name": "",
          "type": "bool"
        }
      ],
      "stateMutability": "view",
      "type": "function"
    },
    {
      "inputs": [],
      "name": "closeSale",
      "outputs": [],
      "stateMutability": "nonpayable",
      "type": "function"
    },
    {
      "inputs": [
        {
          "internalType": "address",
          "name": "walletAddress",
          "type": "address"
        }
      ],
      "name": "confirmOwnership",
      "outputs": [
        {
          "internalType": "bool",
          "name": "",
          "type": "bool"
        }
      ],
      "stateMutability": "view",
      "type": "function"
    },
    {
      "inputs": [
        {
          "internalType": "uint256",
          "name": "tokenId",
          "type": "uint256"
        }
      ],
      "name": "getApproved",
      "outputs": [
        {
          "internalType": "address",
          "name": "",
          "type": "address"
        }
      ],
      "stateMutability": "view",
      "type": "function"
    },
    {
      "inputs": [
        {
          "internalType": "address",
          "name": "owner",
          "type": "address"
        },
        {
          "internalType": "address",
          "name": "operator",
          "type": "address"
        }
      ],
      "name": "isApprovedForAll",
      "outputs": [
        {
          "internalType": "bool",
          "name": "",
          "type": "bool"
        }
      ],
      "stateMutability": "view",
      "type": "function"
    },
    {
      "inputs": [],
      "name": "mint",
      "outputs": [],
      "stateMutability": "payable",
      "type": "function"
    },
    {
      "inputs": [],
      "name": "mintPrice",
      "outputs": [
        {
          "internalType": "uint256",
          "name": "",
          "type": "uint256"
        }
      ],
      "stateMutability": "view",
      "type": "function"
    },
    {
      "inputs": [],
      "name": "name",
      "outputs": [
        {
          "internalType": "string",
          "name": "",
          "type": "string"
        }
      ],
      "stateMutability": "view",
      "type": "function"
    },
    {
      "inputs": [],
      "name": "openSale",
      "outputs": [],
      "stateMutability": "nonpayable",
      "type": "function"
    },
    {
      "inputs": [],
      "name": "owner",
      "outputs": [
        {
          "internalType": "address",
          "name": "",
          "type": "address"
        }
      ],
      "stateMutability": "view",
      "type": "function"
    },
    {
      "inputs": [
        {
          "internalType": "uint256",
          "name": "tokenId",
          "type": "uint256"
        }
      ],
      "name": "ownerOf",
      "outputs": [
        {
          "internalType": "address",
          "name": "",
          "type": "address"
        }
      ],
      "stateMutability": "view",
      "type": "function"
    },
    {
      "inputs": [
        {
          "internalType": "address",
          "name": "",
          "type": "address"
        },
        {
          "internalType": "uint256",
          "name": "",
          "type": "uint256"
        }
      ],
      "name": "ownerTokenIDS",
      "outputs": [
        {
          "internalType": "uint256",
          "name": "",
          "type": "uint256"
        }
      ],
      "stateMutability": "view",
      "type": "function"
    },
    {
      "inputs": [],
      "name": "renounceOwnership",
      "outputs": [],
      "stateMutability": "nonpayable",
      "type": "function"
    },
    {
      "inputs": [
        {
          "internalType": "address",
          "name": "from",
          "type": "address"
        },
        {
          "internalType": "address",
          "name": "to",
          "type": "address"
        },
        {
          "internalType": "uint256",
          "name": "tokenId",
          "type": "uint256"
        }
      ],
      "name": "safeTransferFrom",
      "outputs": [],
      "stateMutability": "nonpayable",
      "type": "function"
    },
    {
      "inputs": [
        {
          "internalType": "address",
          "name": "from",
          "type": "address"
        },
        {
          "internalType": "address",
          "name": "to",
          "type": "address"
        },
        {
          "internalType": "uint256",
          "name": "tokenId",
          "type": "uint256"
        },
        {
          "internalType": "bytes",
          "name": "_data",
          "type": "bytes"
        }
      ],
      "name": "safeTransferFrom",
      "outputs": [],
      "stateMutability": "nonpayable",
      "type": "function"
    },
    {
      "inputs": [],
      "name": "saleIsActive",
      "outputs": [
        {
          "internalType": "bool",
          "name": "",
          "type": "bool"
        }
      ],
      "stateMutability": "view",
      "type": "function"
    },
    {
      "inputs": [
        {
          "internalType": "address",
          "name": "operator",
          "type": "address"
        },
        {
          "internalType": "bool",
          "name": "approved",
          "type": "bool"
        }
      ],
      "name": "setApprovalForAll",
      "outputs": [],
      "stateMutability": "nonpayable",
      "type": "function"
    },
    {
      "inputs": [
        {
          "internalType": "bytes4",
          "name": "interfaceId",
          "type": "bytes4"
        }
      ],
      "name": "supportsInterface",
      "outputs": [
        {
          "internalType": "bool",
          "name": "",
          "type": "bool"
        }
      ],
      "stateMutability": "view",
      "type": "function"
    },
    {
      "inputs": [],
      "name": "symbol",
      "outputs": [
        {
          "internalType": "string",
          "name": "",
          "type": "string"
        }
      ],
      "stateMutability": "view",
      "type": "function"
    },
    {
      "inputs": [
        {
          "internalType": "uint256",
          "name": "tokenId",
          "type": "uint256"
        }
      ],
      "name": "tokenURI",
      "outputs": [
        {
          "internalType": "string",
          "name": "",
          "type": "string"
        }
      ],
      "stateMutability": "view",
      "type": "function"
    },
    {
      "inputs": [],
      "name": "totalTicketCount",
      "outputs": [
        {
          "internalType": "uint256",
          "name": "",
          "type": "uint256"
        }
      ],
      "stateMutability": "view",
      "type": "function"
    },
    {
      "inputs": [],
      "name": "totalTickets",
      "outputs": [
        {
          "internalType": "uint256",
          "name": "",
          "type": "uint256"
        }
      ],
      "stateMutability": "view",
      "type": "function"
    },
    {
      "inputs": [
        {
          "internalType": "address",
          "name": "from",
          "type": "address"
        },
        {
          "internalType": "address",
          "name": "to",
          "type": "address"
        },
        {
          "internalType": "uint256",
          "name": "tokenId",
          "type": "uint256"
        }
      ],
      "name": "transferFrom",
      "outputs": [],
      "stateMutability": "nonpayable",
      "type": "function"
    },
    {
      "inputs": [
        {
          "internalType": "address",
          "name": "newOwner",
          "type": "address"
        }
      ],
      "name": "transferOwnership",
      "outputs": [],
      "stateMutability": "nonpayable",
      "type": "function"
    }
  ],
  "bytecode": "0x60806040526009805460ff191690556064600a819055600b55668e1bc9bf040000600c553480156200003057600080fd5b50604080518082018252600a8152696e66745469636b65747360b01b60208083019182528351808501909452600484526313d4139560e21b9084015281519192916200007f91600091620001ce565b50805162000095906001906020840190620001ce565b505050620000b2620000ac620000fb60201b60201c565b620000ff565b620000c960086200015160201b620010481760201c565b620000f5620000e460086200015a60201b620010511760201c565b6200015e60201b620010551760201c565b620002b1565b3390565b600780546001600160a01b038381166001600160a01b0319831681179093556040519116919082907f8be0079c531659141344cd1fd0a4f28419497f9722a3daafe3b4186f6b6457e090600090a35050565b80546001019055565b5490565b620001aa816040516024016200017691815260200190565b60408051601f198184030181529190526020810180516001600160e01b0390811663f5b1bba960e01b17909152620001ad16565b50565b80516a636f6e736f6c652e6c6f67602083016000808483855afa5050505050565b828054620001dc9062000274565b90600052602060002090601f0160209004810192826200020057600085556200024b565b82601f106200021b57805160ff19168380011785556200024b565b828001600101855582156200024b579182015b828111156200024b5782518255916020019190600101906200022e565b50620002599291506200025d565b5090565b5b808211156200025957600081556001016200025e565b600181811c908216806200028957607f821691505b60208210811415620002ab57634e487b7160e01b600052602260045260246000fd5b50919050565b6125f880620002c16000396000f3fe6080604052600436106101c25760003560e01c806370a08231116100f7578063c87b56dd11610095578063e985e9c511610064578063e985e9c5146104db578063eb8d244414610524578063ee55efee1461053e578063f2fde38b1461055357600080fd5b8063c87b56dd14610465578063c8de91ac14610485578063d9a59e33146104a5578063dd11247e146104c557600080fd5b80638da5cb5b116100d15780638da5cb5b146103f257806395d89b4114610410578063a22cb46514610425578063b88d4fde1461044557600080fd5b806370a0823114610385578063715018a6146103a557806380f2abe3146103ba57600080fd5b80631acc9b62116101645780633d721ecd1161013e5780633d721ecd1461031a57806342842e0e1461032f5780636352211e1461034f5780636817c76c1461036f57600080fd5b80631acc9b62146102b457806323b872dd146102e45780633cfa7e011461030457600080fd5b8063095ea7b3116101a0578063095ea7b3146102565780631249c58b1461027857806314558fab14610280578063167ff46f1461029f57600080fd5b806301ffc9a7146101c757806306fdde03146101fc578063081812fc1461021e575b600080fd5b3480156101d357600080fd5b506101e76101e2366004611e7c565b610573565b60405190151581526020015b60405180910390f35b34801561020857600080fd5b506102116105c5565b6040516101f391906122fa565b34801561022a57600080fd5b5061023e610239366004611eb4565b610657565b6040516001600160a01b0390911681526020016101f3565b34801561026257600080fd5b50610276610271366004611e53565b6106e4565b005b6102766107fa565b34801561028c57600080fd5b50600a545b6040519081526020016101f3565b3480156102ab57600080fd5b50610276610abb565b3480156102c057600080fd5b506101e76102cf366004611cbd565b600d6020526000908152604090205460ff1681565b3480156102f057600080fd5b506102766102ff366004611d09565b610af4565b34801561031057600080fd5b50610291600b5481565b34801561032657600080fd5b50600b54610291565b34801561033b57600080fd5b5061027661034a366004611d09565b610b25565b34801561035b57600080fd5b5061023e61036a366004611eb4565b610b40565b34801561037b57600080fd5b50610291600c5481565b34801561039157600080fd5b506102916103a0366004611cbd565b610bb7565b3480156103b157600080fd5b50610276610c3e565b3480156103c657600080fd5b506101e76103d5366004611cbd565b6001600160a01b03166000908152600e6020526040902054151590565b3480156103fe57600080fd5b506007546001600160a01b031661023e565b34801561041c57600080fd5b50610211610c74565b34801561043157600080fd5b50610276610440366004611e19565b610c83565b34801561045157600080fd5b50610276610460366004611d44565b610c92565b34801561047157600080fd5b50610211610480366004611eb4565b610cca565b34801561049157600080fd5b506102916104a0366004611e53565b610e41565b3480156104b157600080fd5b506102766104c0366004611cbd565b610e72565b3480156104d157600080fd5b50610291600a5481565b3480156104e757600080fd5b506101e76104f6366004611cd7565b6001600160a01b03918216600090815260056020908152604080832093909416825291909152205460ff1690565b34801561053057600080fd5b506009546101e79060ff1681565b34801561054a57600080fd5b50610276610f77565b34801561055f57600080fd5b5061027661056e366004611cbd565b610fad565b60006001600160e01b031982166380ac58cd60e01b14806105a457506001600160e01b03198216635b5e139f60e01b145b806105bf57506301ffc9a760e01b6001600160e01b03198316145b92915050565b6060600080546105d490612473565b80601f016020809104026020016040519081016040528092919081815260200182805461060090612473565b801561064d5780601f106106225761010080835404028352916020019161064d565b820191906000526020600020905b81548152906001019060200180831161063057829003601f168201915b5050505050905090565b60006106628261109a565b6106c85760405162461bcd60e51b815260206004820152602c60248201527f4552433732313a20617070726f76656420717565727920666f72206e6f6e657860448201526b34b9ba32b73a103a37b5b2b760a11b60648201526084015b60405180910390fd5b506000908152600460205260409020546001600160a01b031690565b60006106ef82610b40565b9050806001600160a01b0316836001600160a01b0316141561075d5760405162461bcd60e51b815260206004820152602160248201527f4552433732313a20617070726f76616c20746f2063757272656e74206f776e656044820152603960f91b60648201526084016106bf565b336001600160a01b0382161480610779575061077981336104f6565b6107eb5760405162461bcd60e51b815260206004820152603860248201527f4552433732313a20617070726f76652063616c6c6572206973206e6f74206f7760448201527f6e6572206e6f7220617070726f76656420666f7220616c6c000000000000000060648201526084016106bf565b6107f583836110b7565b505050565b6000600b541161085c5760405162461bcd60e51b815260206004820152602760248201527f546865726520617265206e6f7420656e6f756768207469636b65747320617661604482015266696c61626c652160c81b60648201526084016106bf565b600c543410156108ae5760405162461bcd60e51b815260206004820152601b60248201527f496e73756666696369656e742045544820696e2077616c6c657421000000000060448201526064016106bf565b60095460ff166109115760405162461bcd60e51b815260206004820152602860248201527f43757272656e746c792c20746865726520617265206e6f207469636b6574732060448201526737b71039b0b6329760c11b60648201526084016106bf565b610919611be1565b6040518060800160405280604d8152602001612536604d9139815260085461094590611125565b611125565b6020828101918252604080518082018252600d81526c1e17ba32bc3a1f1e17b9bb339f60991b8184015281850181905284519351915160009461098c949093929101611f6d565b604051602081830303815290604052905060006109a88261123f565b90506109b3816113b3565b6000336040516020016109c69190611fb0565b60405160208183030381529060405290506000816109e661094060085490565b6040516020016109f7929190611fd8565b60405160208183030381529060405290506000610a3f610a1961094060085490565b83604051602001610a2b929190612173565b60405160208183030381529060405261123f565b9050600081604051602001610a549190612278565b6040516020818303038152906040529050610a6e816113b3565b610a8033610a7b60085490565b6113f6565b610a92610a8c60085490565b82611410565b610aa0600880546001019055565b6001600b54610aaf9190612430565b600b5550505050505050565b6007546001600160a01b03163314610ae55760405162461bcd60e51b81526004016106bf9061235f565b6009805460ff19166001179055565b610afe338261149b565b610b1a5760405162461bcd60e51b81526004016106bf90612394565b6107f5838383611581565b6107f583838360405180602001604052806000815250610c92565b6000818152600260205260408120546001600160a01b0316806105bf5760405162461bcd60e51b815260206004820152602960248201527f4552433732313a206f776e657220717565727920666f72206e6f6e657869737460448201526832b73a103a37b5b2b760b91b60648201526084016106bf565b60006001600160a01b038216610c225760405162461bcd60e51b815260206004820152602a60248201527f4552433732313a2062616c616e636520717565727920666f7220746865207a65604482015269726f206164647265737360b01b60648201526084016106bf565b506001600160a01b031660009081526003602052604090205490565b6007546001600160a01b03163314610c685760405162461bcd60e51b81526004016106bf9061235f565b610c726000611721565b565b6060600180546105d490612473565b610c8e338383611773565b5050565b610c9c338361149b565b610cb85760405162461bcd60e51b81526004016106bf90612394565b610cc484848484611842565b50505050565b6060610cd58261109a565b610d3b5760405162461bcd60e51b815260206004820152603160248201527f45524337323155524953746f726167653a2055524920717565727920666f72206044820152703737b732bc34b9ba32b73a103a37b5b2b760791b60648201526084016106bf565b60008281526006602052604081208054610d5490612473565b80601f0160208091040260200160405190810160405280929190818152602001828054610d8090612473565b8015610dcd5780601f10610da257610100808354040283529160200191610dcd565b820191906000526020600020905b815481529060010190602001808311610db057829003601f168201915b505050505090506000610deb60408051602081019091526000815290565b9050805160001415610dfe575092915050565b815115610e30578082604051602001610e18929190611f3e565b60405160208183030381529060405292505050919050565b610e3984611875565b949350505050565b600e6020528160005260406000208181548110610e5d57600080fd5b90600052602060002001600091509150505481565b6001600160a01b0381166000908152600d60209081526040808320805460ff19166001179055600e909152812080548290610ebd57634e487b7160e01b600052603260045260246000fd5b90600052602060002001549050600033604051602001610edd9190611fb0565b604051602081830303815290604052905060008183604051602001610f0392919061202b565b60405160208183030381529060405290506000610f34610f2285611125565b83604051602001610a2b92919061206f565b9050600081604051602001610f499190612278565b6040516020818303038152906040529050610f63816113b3565b610f6f610a8c60085490565b505050505050565b6007546001600160a01b03163314610fa15760405162461bcd60e51b81526004016106bf9061235f565b6009805460ff19169055565b6007546001600160a01b03163314610fd75760405162461bcd60e51b81526004016106bf9061235f565b6001600160a01b03811661103c5760405162461bcd60e51b815260206004820152602660248201527f4f776e61626c653a206e6577206f776e657220697320746865207a65726f206160448201526564647265737360d01b60648201526084016106bf565b61104581611721565b50565b80546001019055565b5490565b6110458160405160240161106b91815260200190565b60408051601f198184030181529190526020810180516001600160e01b031663f5b1bba960e01b17905261194d565b6000908152600260205260409020546001600160a01b0316151590565b600081815260046020526040902080546001600160a01b0319166001600160a01b03841690811790915581906110ec82610b40565b6001600160a01b03167f8c5be1e5ebec7d5bd14f71427d1e84f3dd0314c0f7b2291e5b200ac8c7c3b92560405160405180910390a45050565b6060816111495750506040805180820190915260018152600360fc1b602082015290565b8160005b8115611173578061115d816124ae565b915061116c9050600a836123fd565b915061114d565b60008167ffffffffffffffff81111561119c57634e487b7160e01b600052604160045260246000fd5b6040519080825280601f01601f1916602001820160405280156111c6576020820181803683370190505b5090505b8415610e39576111db600183612430565b91506111e8600a866124c9565b6111f39060306123e5565b60f81b81838151811061121657634e487b7160e01b600052603260045260246000fd5b60200101906001600160f81b031916908160001a905350611238600a866123fd565b94506111ca565b80516060908061125f575050604080516020810190915260008152919050565b6000600361126e8360026123e5565b61127891906123fd565b611283906004612411565b905060006112928260206123e5565b67ffffffffffffffff8111156112b857634e487b7160e01b600052604160045260246000fd5b6040519080825280601f01601f1916602001820160405280156112e2576020820181803683370190505b5090506000604051806060016040528060408152602001612583604091399050600181016020830160005b8681101561136e576003818a01810151603f601282901c8116860151600c83901c8216870151600684901c831688015192909316870151600891821b60ff94851601821b92841692909201901b91160160e01b83526004909201910161130d565b5060038606600181146113885760028114611399576113a5565b613d3d60f01b6001198301526113a5565b603d60f81b6000198301525b505050918152949350505050565b611045816040516024016113c791906122fa565b60408051601f198184030181529190526020810180516001600160e01b031663104c13eb60e21b17905261194d565b610c8e82826040518060200160405280600081525061196e565b6114198261109a565b61147c5760405162461bcd60e51b815260206004820152602e60248201527f45524337323155524953746f726167653a2055524920736574206f66206e6f6e60448201526d32bc34b9ba32b73a103a37b5b2b760911b60648201526084016106bf565b600082815260066020908152604090912082516107f592840190611c08565b60006114a68261109a565b6115075760405162461bcd60e51b815260206004820152602c60248201527f4552433732313a206f70657261746f7220717565727920666f72206e6f6e657860448201526b34b9ba32b73a103a37b5b2b760a11b60648201526084016106bf565b600061151283610b40565b9050806001600160a01b0316846001600160a01b0316148061154d5750836001600160a01b031661154284610657565b6001600160a01b0316145b80610e3957506001600160a01b0380821660009081526005602090815260408083209388168352929052205460ff16610e39565b826001600160a01b031661159482610b40565b6001600160a01b0316146115fc5760405162461bcd60e51b815260206004820152602960248201527f4552433732313a207472616e73666572206f6620746f6b656e2074686174206960448201526839903737ba1037bbb760b91b60648201526084016106bf565b6001600160a01b03821661165e5760405162461bcd60e51b8152602060048201526024808201527f4552433732313a207472616e7366657220746f20746865207a65726f206164646044820152637265737360e01b60648201526084016106bf565b6116696000826110b7565b6001600160a01b0383166000908152600360205260408120805460019290611692908490612430565b90915550506001600160a01b03821660009081526003602052604081208054600192906116c09084906123e5565b909155505060008181526002602052604080822080546001600160a01b0319166001600160a01b0386811691821790925591518493918716917fddf252ad1be2c89b69c2b068fc378daa952ba7f163c4a11628f55a4df523b3ef91a4505050565b600780546001600160a01b038381166001600160a01b0319831681179093556040519116919082907f8be0079c531659141344cd1fd0a4f28419497f9722a3daafe3b4186f6b6457e090600090a35050565b816001600160a01b0316836001600160a01b031614156117d55760405162461bcd60e51b815260206004820152601960248201527f4552433732313a20617070726f766520746f2063616c6c65720000000000000060448201526064016106bf565b6001600160a01b03838116600081815260056020908152604080832094871680845294825291829020805460ff191686151590811790915591519182527f17307eab39ab6107e8899845ad3d59bd9653f200f220920489ca2b5937696c31910160405180910390a3505050565b61184d848484611581565b611859848484846119a1565b610cc45760405162461bcd60e51b81526004016106bf9061230d565b60606118808261109a565b6118e45760405162461bcd60e51b815260206004820152602f60248201527f4552433732314d657461646174613a2055524920717565727920666f72206e6f60448201526e3732bc34b9ba32b73a103a37b5b2b760891b60648201526084016106bf565b60006118fb60408051602081019091526000815290565b9050600081511161191b5760405180602001604052806000815250611946565b8061192584611125565b604051602001611936929190611f3e565b6040516020818303038152906040525b9392505050565b80516a636f6e736f6c652e6c6f67602083016000808483855afa5050505050565b6119788383611aae565b61198560008484846119a1565b6107f55760405162461bcd60e51b81526004016106bf9061230d565b60006001600160a01b0384163b15611aa357604051630a85bd0160e11b81526001600160a01b0385169063150b7a02906119e59033908990889088906004016122bd565b602060405180830381600087803b1580156119ff57600080fd5b505af1925050508015611a2f575060408051601f3d908101601f19168201909252611a2c91810190611e98565b60015b611a89573d808015611a5d576040519150601f19603f3d011682016040523d82523d6000602084013e611a62565b606091505b508051611a815760405162461bcd60e51b81526004016106bf9061230d565b805181602001fd5b6001600160e01b031916630a85bd0160e11b149050610e39565b506001949350505050565b6001600160a01b038216611b045760405162461bcd60e51b815260206004820181905260248201527f4552433732313a206d696e7420746f20746865207a65726f206164647265737360448201526064016106bf565b611b0d8161109a565b15611b5a5760405162461bcd60e51b815260206004820152601c60248201527f4552433732313a20746f6b656e20616c7265616479206d696e7465640000000060448201526064016106bf565b6001600160a01b0382166000908152600360205260408120805460019290611b839084906123e5565b909155505060008181526002602052604080822080546001600160a01b0319166001600160a01b03861690811790915590518392907fddf252ad1be2c89b69c2b068fc378daa952ba7f163c4a11628f55a4df523b3ef908290a45050565b6040518060a001604052806005905b6060815260200190600190039081611bf05790505090565b828054611c1490612473565b90600052602060002090601f016020900481019282611c365760008555611c7c565b82601f10611c4f57805160ff1916838001178555611c7c565b82800160010185558215611c7c579182015b82811115611c7c578251825591602001919060010190611c61565b50611c88929150611c8c565b5090565b5b80821115611c885760008155600101611c8d565b80356001600160a01b0381168114611cb857600080fd5b919050565b600060208284031215611cce578081fd5b61194682611ca1565b60008060408385031215611ce9578081fd5b611cf283611ca1565b9150611d0060208401611ca1565b90509250929050565b600080600060608486031215611d1d578081fd5b611d2684611ca1565b9250611d3460208501611ca1565b9150604084013590509250925092565b60008060008060808587031215611d59578081fd5b611d6285611ca1565b9350611d7060208601611ca1565b925060408501359150606085013567ffffffffffffffff80821115611d93578283fd5b818701915087601f830112611da6578283fd5b813581811115611db857611db8612509565b604051601f8201601f19908116603f01168101908382118183101715611de057611de0612509565b816040528281528a6020848701011115611df8578586fd5b82602086016020830137918201602001949094529598949750929550505050565b60008060408385031215611e2b578182fd5b611e3483611ca1565b915060208301358015158114611e48578182fd5b809150509250929050565b60008060408385031215611e65578182fd5b611e6e83611ca1565b946020939093013593505050565b600060208284031215611e8d578081fd5b81356119468161251f565b600060208284031215611ea9578081fd5b81516119468161251f565b600060208284031215611ec5578081fd5b5035919050565b60008151808452611ee4816020860160208601612447565b601f01601f19169290920160200192915050565b7f222c20226465736372697074696f6e223a202241204e46542d706f77657265648152730103a34b1b5b2ba34b7339039bcb9ba32b69116160651b602082015260340190565b60008351611f50818460208801612447565b835190830190611f64818360208801612447565b01949350505050565b60008451611f7f818460208901612447565b845190830190611f93818360208901612447565b8451910190611fa6818360208801612447565b0195945050505050565b61060f60f31b815260609190911b6bffffffffffffffffffffffff1916600282015260160190565b7468747470733a2f2f726f626f686173682e6f72672f60581b815260008351612008816015850160208801612447565b83519083019061201f816015840160208801612447565b01601501949350505050565b7468747470733a2f2f726f626f686173682e6f72672f60581b81526000835161205b816015850160208801612447565b601592019182019290925260350192915050565b707b20226e616d65223a20224f504e54202360781b8152825160009061209c816011850160208801612447565b6120aa601182850101611ef8565b90507f22747261697473223a205b7b202274726169745f74797065223a20224368656381527f6b656420496e222c202276616c7565223a20227472756522207d2c207b20227460208201527f726169745f74797065223a2022507572636861736564222c202276616c75652260408201526c01d10113a393ab291103eae961609d1b6060820152691134b6b0b3b2911d101160b11b606d8201528351612157816077840160208801612447565b6222207d60e81b60779290910191820152607a01949350505050565b707b20226e616d65223a20224f504e54202360781b815282516000906121a0816011850160208801612447565b6121ae601182850101611ef8565b90507f22747261697473223a205b7b202274726169745f74797065223a20224368656381527f6b656420496e222c202276616c7565223a202266616c736522207d2c207b202260208201527f74726169745f74797065223a2022507572636861736564222c202276616c756560408201526d0111d10113a393ab291103eae96160951b6060820152691134b6b0b3b2911d101160b11b606e820152835161225c816078840160208801612447565b6222207d60e81b60789290910191820152607b01949350505050565b7f646174613a6170706c69636174696f6e2f6a736f6e3b6261736536342c0000008152600082516122b081601d850160208701612447565b91909101601d0192915050565b6001600160a01b03858116825284166020820152604081018390526080606082018190526000906122f090830184611ecc565b9695505050505050565b6020815260006119466020830184611ecc565b60208082526032908201527f4552433732313a207472616e7366657220746f206e6f6e20455243373231526560408201527131b2b4bb32b91034b6b83632b6b2b73a32b960711b606082015260800190565b6020808252818101527f4f776e61626c653a2063616c6c6572206973206e6f7420746865206f776e6572604082015260600190565b60208082526031908201527f4552433732313a207472616e736665722063616c6c6572206973206e6f74206f6040820152701ddb995c881b9bdc88185c1c1c9bdd9959607a1b606082015260800190565b600082198211156123f8576123f86124dd565b500190565b60008261240c5761240c6124f3565b500490565b600081600019048311821515161561242b5761242b6124dd565b500290565b600082821015612442576124426124dd565b500390565b60005b8381101561246257818101518382015260200161244a565b83811115610cc45750506000910152565b600181811c9082168061248757607f821691505b602082108114156124a857634e487b7160e01b600052602260045260246000fd5b50919050565b60006000198214156124c2576124c26124dd565b5060010190565b6000826124d8576124d86124f3565b500690565b634e487b7160e01b600052601160045260246000fd5b634e487b7160e01b600052601260045260246000fd5b634e487b7160e01b600052604160045260246000fd5b6001600160e01b03198116811461104557600080fdfe3c7376672076696577426f783d222030203020313030203130302220786d6c6e733d2268747470733a2f2f7777772e77332e6f72672f323030302f737667223e3c7465787420793d223530223e4142434445464748494a4b4c4d4e4f505152535455565758595a6162636465666768696a6b6c6d6e6f707172737475767778797a303132333435363738392b2fa26469706673582212207537d66f0b4826dabfde63165cec0cc8d52e2c96726c7bdd71c20da7d3e2502064736f6c63430008040033",
  "linkReferences": {},
  "deployedLinkReferences": {}
}