{
  "_format": "hh-sol-artifact-1",
  "contractName": "nftTicketing",
  "sourceName": "contracts/nftTicketing.sol",
  "abi": [
    {
      "inputs": [],
      "stateMutability": "nonpayable",
      "type": "constructor"
    },
    {
      "anonymous": false,
      "inputs": [
        {
          "indexed": true,
          "internalType": "address",
          "name": "owner",
          "type": "address"
        },
        {
          "indexed": true,
          "internalType": "address",
          "name": "approved",
          "type": "address"
        },
        {
          "indexed": true,
          "internalType": "uint256",
          "name": "tokenId",
          "type": "uint256"
        }
      ],
      "name": "Approval",
      "type": "event"
    },
    {
      "anonymous": false,
      "inputs": [
        {
          "indexed": true,
          "internalType": "address",
          "name": "owner",
          "type": "address"
        },
        {
          "indexed": true,
          "internalType": "address",
          "name": "operator",
          "type": "address"
        },
        {
          "indexed": false,
          "internalType": "bool",
          "name": "approved",
          "type": "bool"
        }
      ],
      "name": "ApprovalForAll",
      "type": "event"
    },
    {
      "anonymous": false,
      "inputs": [
        {
          "indexed": true,
          "internalType": "address",
          "name": "previousOwner",
          "type": "address"
        },
        {
          "indexed": true,
          "internalType": "address",
          "name": "newOwner",
          "type": "address"
        }
      ],
      "name": "OwnershipTransferred",
      "type": "event"
    },
    {
      "anonymous": false,
      "inputs": [
        {
          "indexed": true,
          "internalType": "address",
          "name": "from",
          "type": "address"
        },
        {
          "indexed": true,
          "internalType": "address",
          "name": "to",
          "type": "address"
        },
        {
          "indexed": true,
          "internalType": "uint256",
          "name": "tokenId",
          "type": "uint256"
        }
      ],
      "name": "Transfer",
      "type": "event"
    },
    {
      "inputs": [
        {
          "internalType": "address",
          "name": "to",
          "type": "address"
        },
        {
          "internalType": "uint256",
          "name": "tokenId",
          "type": "uint256"
        }
      ],
      "name": "approve",
      "outputs": [],
      "stateMutability": "nonpayable",
      "type": "function"
    },
    {
      "inputs": [],
      "name": "availableTicketCount",
      "outputs": [
        {
          "internalType": "uint256",
          "name": "",
          "type": "uint256"
        }
      ],
      "stateMutability": "view",
      "type": "function"
    },
    {
      "inputs": [],
      "name": "availableTickets",
      "outputs": [
        {
          "internalType": "uint256",
          "name": "",
          "type": "uint256"
        }
      ],
      "stateMutability": "view",
      "type": "function"
    },
    {
      "inputs": [
        {
          "internalType": "address",
          "name": "owner",
          "type": "address"
        }
      ],
      "name": "balanceOf",
      "outputs": [
        {
          "internalType": "uint256",
          "name": "",
          "type": "uint256"
        }
      ],
      "stateMutability": "view",
      "type": "function"
    },
    {
      "inputs": [
        {
          "internalType": "address",
          "name": "addy",
          "type": "address"
        }
      ],
      "name": "checkIn",
      "outputs": [],
      "stateMutability": "nonpayable",
      "type": "function"
    },
    {
      "inputs": [
        {
          "internalType": "address",
          "name": "",
          "type": "address"
        }
      ],
      "name": "checkIns",
      "outputs": [
        {
          "internalType": "bool",
          "name": "",
          "type": "bool"
        }
      ],
      "stateMutability": "view",
      "type": "function"
    },
    {
      "inputs": [],
      "name": "closeSale",
      "outputs": [],
      "stateMutability": "nonpayable",
      "type": "function"
    },
    {
      "inputs": [
        {
          "internalType": "address",
          "name": "addy",
          "type": "address"
        }
      ],
      "name": "confirmOwnership",
      "outputs": [
        {
          "internalType": "bool",
          "name": "",
          "type": "bool"
        }
      ],
      "stateMutability": "view",
      "type": "function"
    },
    {
      "inputs": [
        {
          "internalType": "uint256",
          "name": "tokenId",
          "type": "uint256"
        }
      ],
      "name": "getApproved",
      "outputs": [
        {
          "internalType": "address",
          "name": "",
          "type": "address"
        }
      ],
      "stateMutability": "view",
      "type": "function"
    },
    {
      "inputs": [
        {
          "internalType": "address",
          "name": "owner",
          "type": "address"
        },
        {
          "internalType": "address",
          "name": "operator",
          "type": "address"
        }
      ],
      "name": "isApprovedForAll",
      "outputs": [
        {
          "internalType": "bool",
          "name": "",
          "type": "bool"
        }
      ],
      "stateMutability": "view",
      "type": "function"
    },
    {
      "inputs": [],
      "name": "mint",
      "outputs": [],
      "stateMutability": "payable",
      "type": "function"
    },
    {
      "inputs": [],
      "name": "mintPrice",
      "outputs": [
        {
          "internalType": "uint256",
          "name": "",
          "type": "uint256"
        }
      ],
      "stateMutability": "view",
      "type": "function"
    },
    {
      "inputs": [],
      "name": "name",
      "outputs": [
        {
          "internalType": "string",
          "name": "",
          "type": "string"
        }
      ],
      "stateMutability": "view",
      "type": "function"
    },
    {
      "inputs": [],
      "name": "openSale",
      "outputs": [],
      "stateMutability": "nonpayable",
      "type": "function"
    },
    {
      "inputs": [],
      "name": "owner",
      "outputs": [
        {
          "internalType": "address",
          "name": "",
          "type": "address"
        }
      ],
      "stateMutability": "view",
      "type": "function"
    },
    {
      "inputs": [
        {
          "internalType": "uint256",
          "name": "tokenId",
          "type": "uint256"
        }
      ],
      "name": "ownerOf",
      "outputs": [
        {
          "internalType": "address",
          "name": "",
          "type": "address"
        }
      ],
      "stateMutability": "view",
      "type": "function"
    },
    {
      "inputs": [
        {
          "internalType": "address",
          "name": "",
          "type": "address"
        },
        {
          "internalType": "uint256",
          "name": "",
          "type": "uint256"
        }
      ],
      "name": "ownerTokenIDS",
      "outputs": [
        {
          "internalType": "uint256",
          "name": "",
          "type": "uint256"
        }
      ],
      "stateMutability": "view",
      "type": "function"
    },
    {
      "inputs": [],
      "name": "renounceOwnership",
      "outputs": [],
      "stateMutability": "nonpayable",
      "type": "function"
    },
    {
      "inputs": [
        {
          "internalType": "address",
          "name": "from",
          "type": "address"
        },
        {
          "internalType": "address",
          "name": "to",
          "type": "address"
        },
        {
          "internalType": "uint256",
          "name": "tokenId",
          "type": "uint256"
        }
      ],
      "name": "safeTransferFrom",
      "outputs": [],
      "stateMutability": "nonpayable",
      "type": "function"
    },
    {
      "inputs": [
        {
          "internalType": "address",
          "name": "from",
          "type": "address"
        },
        {
          "internalType": "address",
          "name": "to",
          "type": "address"
        },
        {
          "internalType": "uint256",
          "name": "tokenId",
          "type": "uint256"
        },
        {
          "internalType": "bytes",
          "name": "_data",
          "type": "bytes"
        }
      ],
      "name": "safeTransferFrom",
      "outputs": [],
      "stateMutability": "nonpayable",
      "type": "function"
    },
    {
      "inputs": [],
      "name": "saleIsActive",
      "outputs": [
        {
          "internalType": "bool",
          "name": "",
          "type": "bool"
        }
      ],
      "stateMutability": "view",
      "type": "function"
    },
    {
      "inputs": [
        {
          "internalType": "address",
          "name": "operator",
          "type": "address"
        },
        {
          "internalType": "bool",
          "name": "approved",
          "type": "bool"
        }
      ],
      "name": "setApprovalForAll",
      "outputs": [],
      "stateMutability": "nonpayable",
      "type": "function"
    },
    {
      "inputs": [
        {
          "internalType": "bytes4",
          "name": "interfaceId",
          "type": "bytes4"
        }
      ],
      "name": "supportsInterface",
      "outputs": [
        {
          "internalType": "bool",
          "name": "",
          "type": "bool"
        }
      ],
      "stateMutability": "view",
      "type": "function"
    },
    {
      "inputs": [],
      "name": "symbol",
      "outputs": [
        {
          "internalType": "string",
          "name": "",
          "type": "string"
        }
      ],
      "stateMutability": "view",
      "type": "function"
    },
    {
      "inputs": [
        {
          "internalType": "uint256",
          "name": "tokenId",
          "type": "uint256"
        }
      ],
      "name": "tokenURI",
      "outputs": [
        {
          "internalType": "string",
          "name": "",
          "type": "string"
        }
      ],
      "stateMutability": "view",
      "type": "function"
    },
    {
      "inputs": [],
      "name": "totalTicketCount",
      "outputs": [
        {
          "internalType": "uint256",
          "name": "",
          "type": "uint256"
        }
      ],
      "stateMutability": "view",
      "type": "function"
    },
    {
      "inputs": [],
      "name": "totalTickets",
      "outputs": [
        {
          "internalType": "uint256",
          "name": "",
          "type": "uint256"
        }
      ],
      "stateMutability": "view",
      "type": "function"
    },
    {
      "inputs": [
        {
          "internalType": "address",
          "name": "from",
          "type": "address"
        },
        {
          "internalType": "address",
          "name": "to",
          "type": "address"
        },
        {
          "internalType": "uint256",
          "name": "tokenId",
          "type": "uint256"
        }
      ],
      "name": "transferFrom",
      "outputs": [],
      "stateMutability": "nonpayable",
      "type": "function"
    },
    {
      "inputs": [
        {
          "internalType": "address",
          "name": "newOwner",
          "type": "address"
        }
      ],
      "name": "transferOwnership",
      "outputs": [],
      "stateMutability": "nonpayable",
      "type": "function"
    }
  ],
  "bytecode": "0x60806040526009805460ff191690556064600a819055600b55668e1bc9bf040000600c553480156200003057600080fd5b50604080518082018252600a8152696e66745469636b65747360b01b60208083019182528351808501909452600484526313d4139560e21b9084015281519192916200007f91600091620001ce565b50805162000095906001906020840190620001ce565b505050620000b2620000ac620000fb60201b60201c565b620000ff565b620000c960086200015160201b62000f9b1760201c565b620000f5620000e460086200015a60201b62000fa41760201c565b6200015e60201b62000fa81760201c565b620002b1565b3390565b600780546001600160a01b038381166001600160a01b0319831681179093556040519116919082907f8be0079c531659141344cd1fd0a4f28419497f9722a3daafe3b4186f6b6457e090600090a35050565b80546001019055565b5490565b620001aa816040516024016200017691815260200190565b60408051601f198184030181529190526020810180516001600160e01b0390811663f5b1bba960e01b17909152620001ad16565b50565b80516a636f6e736f6c652e6c6f67602083016000808483855afa5050505050565b828054620001dc9062000274565b90600052602060002090601f0160209004810192826200020057600085556200024b565b82601f106200021b57805160ff19168380011785556200024b565b828001600101855582156200024b579182015b828111156200024b5782518255916020019190600101906200022e565b50620002599291506200025d565b5090565b5b808211156200025957600081556001016200025e565b600181811c908216806200028957607f821691505b60208210811415620002ab57634e487b7160e01b600052602260045260246000fd5b50919050565b61247a80620002c16000396000f3fe6080604052600436106101c25760003560e01c806370a08231116100f7578063c87b56dd11610095578063e985e9c511610064578063e985e9c5146104db578063eb8d244414610524578063ee55efee1461053e578063f2fde38b1461055357600080fd5b8063c87b56dd14610465578063c8de91ac14610485578063d9a59e33146104a5578063dd11247e146104c557600080fd5b80638da5cb5b116100d15780638da5cb5b146103f257806395d89b4114610410578063a22cb46514610425578063b88d4fde1461044557600080fd5b806370a0823114610385578063715018a6146103a557806380f2abe3146103ba57600080fd5b80631acc9b62116101645780633d721ecd1161013e5780633d721ecd1461031a57806342842e0e1461032f5780636352211e1461034f5780636817c76c1461036f57600080fd5b80631acc9b62146102b457806323b872dd146102e45780633cfa7e011461030457600080fd5b8063095ea7b3116101a0578063095ea7b3146102565780631249c58b1461027857806314558fab14610280578063167ff46f1461029f57600080fd5b806301ffc9a7146101c757806306fdde03146101fc578063081812fc1461021e575b600080fd5b3480156101d357600080fd5b506101e76101e2366004611dcf565b610573565b60405190151581526020015b60405180910390f35b34801561020857600080fd5b506102116105c5565b6040516101f3919061217c565b34801561022a57600080fd5b5061023e610239366004611e07565b610657565b6040516001600160a01b0390911681526020016101f3565b34801561026257600080fd5b50610276610271366004611da6565b6106e4565b005b6102766107fa565b34801561028c57600080fd5b50600a545b6040519081526020016101f3565b3480156102ab57600080fd5b50610276610a62565b3480156102c057600080fd5b506101e76102cf366004611c10565b600d6020526000908152604090205460ff1681565b3480156102f057600080fd5b506102766102ff366004611c5c565b610a9b565b34801561031057600080fd5b50610291600b5481565b34801561032657600080fd5b50600b54610291565b34801561033b57600080fd5b5061027661034a366004611c5c565b610acc565b34801561035b57600080fd5b5061023e61036a366004611e07565b610ae7565b34801561037b57600080fd5b50610291600c5481565b34801561039157600080fd5b506102916103a0366004611c10565b610b5e565b3480156103b157600080fd5b50610276610be5565b3480156103c657600080fd5b506101e76103d5366004611c10565b6001600160a01b03166000908152600e6020526040902054151590565b3480156103fe57600080fd5b506007546001600160a01b031661023e565b34801561041c57600080fd5b50610211610c1b565b34801561043157600080fd5b50610276610440366004611d6c565b610c2a565b34801561045157600080fd5b50610276610460366004611c97565b610c39565b34801561047157600080fd5b50610211610480366004611e07565b610c71565b34801561049157600080fd5b506102916104a0366004611da6565b610de8565b3480156104b157600080fd5b506102766104c0366004611c10565b610e19565b3480156104d157600080fd5b50610291600a5481565b3480156104e757600080fd5b506101e76104f6366004611c2a565b6001600160a01b03918216600090815260056020908152604080832093909416825291909152205460ff1690565b34801561053057600080fd5b506009546101e79060ff1681565b34801561054a57600080fd5b50610276610eca565b34801561055f57600080fd5b5061027661056e366004611c10565b610f00565b60006001600160e01b031982166380ac58cd60e01b14806105a457506001600160e01b03198216635b5e139f60e01b145b806105bf57506301ffc9a760e01b6001600160e01b03198316145b92915050565b6060600080546105d4906122f5565b80601f0160208091040260200160405190810160405280929190818152602001828054610600906122f5565b801561064d5780601f106106225761010080835404028352916020019161064d565b820191906000526020600020905b81548152906001019060200180831161063057829003601f168201915b5050505050905090565b600061066282610fed565b6106c85760405162461bcd60e51b815260206004820152602c60248201527f4552433732313a20617070726f76656420717565727920666f72206e6f6e657860448201526b34b9ba32b73a103a37b5b2b760a11b60648201526084015b60405180910390fd5b506000908152600460205260409020546001600160a01b031690565b60006106ef82610ae7565b9050806001600160a01b0316836001600160a01b0316141561075d5760405162461bcd60e51b815260206004820152602160248201527f4552433732313a20617070726f76616c20746f2063757272656e74206f776e656044820152603960f91b60648201526084016106bf565b336001600160a01b0382161480610779575061077981336104f6565b6107eb5760405162461bcd60e51b815260206004820152603860248201527f4552433732313a20617070726f76652063616c6c6572206973206e6f74206f7760448201527f6e6572206e6f7220617070726f76656420666f7220616c6c000000000000000060648201526084016106bf565b6107f5838361100a565b505050565b6000600b541161085c5760405162461bcd60e51b815260206004820152602760248201527f546865726520617265206e6f7420656e6f756768207469636b65747320617661604482015266696c61626c652160c81b60648201526084016106bf565b600c543410156108ae5760405162461bcd60e51b815260206004820152601b60248201527f496e73756666696369656e742045544820696e2077616c6c657421000000000060448201526064016106bf565b60095460ff166109115760405162461bcd60e51b815260206004820152602860248201527f43757272656e746c792c20746865726520617265206e6f207469636b6574732060448201526737b71039b0b6329760c11b60648201526084016106bf565b610919611b34565b6040518060800160405280604d81526020016123b8604d9139815260085461094590611078565b611078565b6020828101918252604080518082018252600d81526c1e17ba32bc3a1f1e17b9bb339f60991b8184015281850181905284519351915160009461098c949093929101611f1a565b604051602081830303815290604052905060006109a882611192565b90506109b381611306565b60006109e86109c461094060085490565b6040516020016109d4919061202b565b604051602081830303815290604052611192565b90506000816040516020016109fd91906120fa565b6040516020818303038152906040529050610a1781611306565b610a2933610a2460085490565b611349565b610a3b610a3560085490565b82611363565b610a49600880546001019055565b6001600b54610a5891906122b2565b600b555050505050565b6007546001600160a01b03163314610a8c5760405162461bcd60e51b81526004016106bf906121e1565b6009805460ff19166001179055565b610aa533826113ee565b610ac15760405162461bcd60e51b81526004016106bf90612216565b6107f58383836114d4565b6107f583838360405180602001604052806000815250610c39565b6000818152600260205260408120546001600160a01b0316806105bf5760405162461bcd60e51b815260206004820152602960248201527f4552433732313a206f776e657220717565727920666f72206e6f6e657869737460448201526832b73a103a37b5b2b760b91b60648201526084016106bf565b60006001600160a01b038216610bc95760405162461bcd60e51b815260206004820152602a60248201527f4552433732313a2062616c616e636520717565727920666f7220746865207a65604482015269726f206164647265737360b01b60648201526084016106bf565b506001600160a01b031660009081526003602052604090205490565b6007546001600160a01b03163314610c0f5760405162461bcd60e51b81526004016106bf906121e1565b610c196000611674565b565b6060600180546105d4906122f5565b610c353383836116c6565b5050565b610c4333836113ee565b610c5f5760405162461bcd60e51b81526004016106bf90612216565b610c6b84848484611795565b50505050565b6060610c7c82610fed565b610ce25760405162461bcd60e51b815260206004820152603160248201527f45524337323155524953746f726167653a2055524920717565727920666f72206044820152703737b732bc34b9ba32b73a103a37b5b2b760791b60648201526084016106bf565b60008281526006602052604081208054610cfb906122f5565b80601f0160208091040260200160405190810160405280929190818152602001828054610d27906122f5565b8015610d745780601f10610d4957610100808354040283529160200191610d74565b820191906000526020600020905b815481529060010190602001808311610d5757829003601f168201915b505050505090506000610d9260408051602081019091526000815290565b9050805160001415610da5575092915050565b815115610dd7578082604051602001610dbf929190611eeb565b60405160208183030381529060405292505050919050565b610de0846117c8565b949350505050565b600e6020528160005260406000208181548110610e0457600080fd5b90600052602060002001600091509150505481565b6001600160a01b0381166000908152600d60209081526040808320805460ff19166001179055600e909152812080548290610e6457634e487b7160e01b600052603260045260246000fd5b906000526020600020015490506000610e8f610e7f83611078565b6040516020016109d49190611f5d565b9050600081604051602001610ea491906120fa565b6040516020818303038152906040529050610ebe81611306565b610c6b610a3560085490565b6007546001600160a01b03163314610ef45760405162461bcd60e51b81526004016106bf906121e1565b6009805460ff19169055565b6007546001600160a01b03163314610f2a5760405162461bcd60e51b81526004016106bf906121e1565b6001600160a01b038116610f8f5760405162461bcd60e51b815260206004820152602660248201527f4f776e61626c653a206e6577206f776e657220697320746865207a65726f206160448201526564647265737360d01b60648201526084016106bf565b610f9881611674565b50565b80546001019055565b5490565b610f9881604051602401610fbe91815260200190565b60408051601f198184030181529190526020810180516001600160e01b031663f5b1bba960e01b1790526118a0565b6000908152600260205260409020546001600160a01b0316151590565b600081815260046020526040902080546001600160a01b0319166001600160a01b038416908117909155819061103f82610ae7565b6001600160a01b03167f8c5be1e5ebec7d5bd14f71427d1e84f3dd0314c0f7b2291e5b200ac8c7c3b92560405160405180910390a45050565b60608161109c5750506040805180820190915260018152600360fc1b602082015290565b8160005b81156110c657806110b081612330565b91506110bf9050600a8361227f565b91506110a0565b60008167ffffffffffffffff8111156110ef57634e487b7160e01b600052604160045260246000fd5b6040519080825280601f01601f191660200182016040528015611119576020820181803683370190505b5090505b8415610de05761112e6001836122b2565b915061113b600a8661234b565b611146906030612267565b60f81b81838151811061116957634e487b7160e01b600052603260045260246000fd5b60200101906001600160f81b031916908160001a90535061118b600a8661227f565b945061111d565b8051606090806111b2575050604080516020810190915260008152919050565b600060036111c1836002612267565b6111cb919061227f565b6111d6906004612293565b905060006111e5826020612267565b67ffffffffffffffff81111561120b57634e487b7160e01b600052604160045260246000fd5b6040519080825280601f01601f191660200182016040528015611235576020820181803683370190505b5090506000604051806060016040528060408152602001612405604091399050600181016020830160005b868110156112c1576003818a01810151603f601282901c8116860151600c83901c8216870151600684901c831688015192909316870151600891821b60ff94851601821b92841692909201901b91160160e01b835260049092019101611260565b5060038606600181146112db57600281146112ec576112f8565b613d3d60f01b6001198301526112f8565b603d60f81b6000198301525b505050918152949350505050565b610f988160405160240161131a919061217c565b60408051601f198184030181529190526020810180516001600160e01b031663104c13eb60e21b1790526118a0565b610c358282604051806020016040528060008152506118c1565b61136c82610fed565b6113cf5760405162461bcd60e51b815260206004820152602e60248201527f45524337323155524953746f726167653a2055524920736574206f66206e6f6e60448201526d32bc34b9ba32b73a103a37b5b2b760911b60648201526084016106bf565b600082815260066020908152604090912082516107f592840190611b5b565b60006113f982610fed565b61145a5760405162461bcd60e51b815260206004820152602c60248201527f4552433732313a206f70657261746f7220717565727920666f72206e6f6e657860448201526b34b9ba32b73a103a37b5b2b760a11b60648201526084016106bf565b600061146583610ae7565b9050806001600160a01b0316846001600160a01b031614806114a05750836001600160a01b031661149584610657565b6001600160a01b0316145b80610de057506001600160a01b0380821660009081526005602090815260408083209388168352929052205460ff16610de0565b826001600160a01b03166114e782610ae7565b6001600160a01b03161461154f5760405162461bcd60e51b815260206004820152602960248201527f4552433732313a207472616e73666572206f6620746f6b656e2074686174206960448201526839903737ba1037bbb760b91b60648201526084016106bf565b6001600160a01b0382166115b15760405162461bcd60e51b8152602060048201526024808201527f4552433732313a207472616e7366657220746f20746865207a65726f206164646044820152637265737360e01b60648201526084016106bf565b6115bc60008261100a565b6001600160a01b03831660009081526003602052604081208054600192906115e59084906122b2565b90915550506001600160a01b0382166000908152600360205260408120805460019290611613908490612267565b909155505060008181526002602052604080822080546001600160a01b0319166001600160a01b0386811691821790925591518493918716917fddf252ad1be2c89b69c2b068fc378daa952ba7f163c4a11628f55a4df523b3ef91a4505050565b600780546001600160a01b038381166001600160a01b0319831681179093556040519116919082907f8be0079c531659141344cd1fd0a4f28419497f9722a3daafe3b4186f6b6457e090600090a35050565b816001600160a01b0316836001600160a01b031614156117285760405162461bcd60e51b815260206004820152601960248201527f4552433732313a20617070726f766520746f2063616c6c65720000000000000060448201526064016106bf565b6001600160a01b03838116600081815260056020908152604080832094871680845294825291829020805460ff191686151590811790915591519182527f17307eab39ab6107e8899845ad3d59bd9653f200f220920489ca2b5937696c31910160405180910390a3505050565b6117a08484846114d4565b6117ac848484846118f4565b610c6b5760405162461bcd60e51b81526004016106bf9061218f565b60606117d382610fed565b6118375760405162461bcd60e51b815260206004820152602f60248201527f4552433732314d657461646174613a2055524920717565727920666f72206e6f60448201526e3732bc34b9ba32b73a103a37b5b2b760891b60648201526084016106bf565b600061184e60408051602081019091526000815290565b9050600081511161186e5760405180602001604052806000815250611899565b8061187884611078565b604051602001611889929190611eeb565b6040516020818303038152906040525b9392505050565b80516a636f6e736f6c652e6c6f67602083016000808483855afa5050505050565b6118cb8383611a01565b6118d860008484846118f4565b6107f55760405162461bcd60e51b81526004016106bf9061218f565b60006001600160a01b0384163b156119f657604051630a85bd0160e11b81526001600160a01b0385169063150b7a029061193890339089908890889060040161213f565b602060405180830381600087803b15801561195257600080fd5b505af1925050508015611982575060408051601f3d908101601f1916820190925261197f91810190611deb565b60015b6119dc573d8080156119b0576040519150601f19603f3d011682016040523d82523d6000602084013e6119b5565b606091505b5080516119d45760405162461bcd60e51b81526004016106bf9061218f565b805181602001fd5b6001600160e01b031916630a85bd0160e11b149050610de0565b506001949350505050565b6001600160a01b038216611a575760405162461bcd60e51b815260206004820181905260248201527f4552433732313a206d696e7420746f20746865207a65726f206164647265737360448201526064016106bf565b611a6081610fed565b15611aad5760405162461bcd60e51b815260206004820152601c60248201527f4552433732313a20746f6b656e20616c7265616479206d696e7465640000000060448201526064016106bf565b6001600160a01b0382166000908152600360205260408120805460019290611ad6908490612267565b909155505060008181526002602052604080822080546001600160a01b0319166001600160a01b03861690811790915590518392907fddf252ad1be2c89b69c2b068fc378daa952ba7f163c4a11628f55a4df523b3ef908290a45050565b6040518060a001604052806005905b6060815260200190600190039081611b435790505090565b828054611b67906122f5565b90600052602060002090601f016020900481019282611b895760008555611bcf565b82601f10611ba257805160ff1916838001178555611bcf565b82800160010185558215611bcf579182015b82811115611bcf578251825591602001919060010190611bb4565b50611bdb929150611bdf565b5090565b5b80821115611bdb5760008155600101611be0565b80356001600160a01b0381168114611c0b57600080fd5b919050565b600060208284031215611c21578081fd5b61189982611bf4565b60008060408385031215611c3c578081fd5b611c4583611bf4565b9150611c5360208401611bf4565b90509250929050565b600080600060608486031215611c70578081fd5b611c7984611bf4565b9250611c8760208501611bf4565b9150604084013590509250925092565b60008060008060808587031215611cac578081fd5b611cb585611bf4565b9350611cc360208601611bf4565b925060408501359150606085013567ffffffffffffffff80821115611ce6578283fd5b818701915087601f830112611cf9578283fd5b813581811115611d0b57611d0b61238b565b604051601f8201601f19908116603f01168101908382118183101715611d3357611d3361238b565b816040528281528a6020848701011115611d4b578586fd5b82602086016020830137918201602001949094529598949750929550505050565b60008060408385031215611d7e578182fd5b611d8783611bf4565b915060208301358015158114611d9b578182fd5b809150509250929050565b60008060408385031215611db8578182fd5b611dc183611bf4565b946020939093013593505050565b600060208284031215611de0578081fd5b8135611899816123a1565b600060208284031215611dfc578081fd5b8151611899816123a1565b600060208284031215611e18578081fd5b5035919050565b60008151808452611e378160208601602086016122c9565b601f01601f19169290920160200192915050565b7f222c20226465736372697074696f6e223a202241204e46542d706f77657265648152730103a34b1b5b2ba34b7339039bcb9ba32b69116160651b602082015260340190565b7f22696d616765223a2022697066733a2f2f516d576d5956674b7a69484b51393681527f34695135545a676b3377434b72656a695a726f4c6677746844456d7232705122602082015261207d60f01b604082015260420190565b60008351611efd8184602088016122c9565b835190830190611f118183602088016122c9565b01949350505050565b60008451611f2c8184602089016122c9565b845190830190611f408183602089016122c9565b8451910190611f538183602088016122c9565b0195945050505050565b707b20226e616d65223a20224f504e54202360781b81528151600090611f8a8160118501602087016122c9565b611f98601182850101611e4b565b7f22747261697473223a205b7b202274726169745f74797065223a20224368656381527f6b656420496e222c202276616c7565223a20227472756522207d2c207b20227460208201527f726169745f74797065223a2022507572636861736564222c202276616c75652260408201526c01d10113a393ab291103eae961609d1b60608201529050610de0606d8201611e91565b707b20226e616d65223a20224f504e54202360781b815281516000906120588160118501602087016122c9565b612066601182850101611e4b565b7f22747261697473223a205b7b202274726169745f74797065223a20224368656381527f6b656420496e222c202276616c7565223a202266616c736522207d2c207b202260208201527f74726169745f74797065223a2022507572636861736564222c202276616c756560408201526d0111d10113a393ab291103eae96160951b60608201529050610de0606e8201611e91565b7f646174613a6170706c69636174696f6e2f6a736f6e3b6261736536342c00000081526000825161213281601d8501602087016122c9565b91909101601d0192915050565b6001600160a01b038581168252841660208201526040810183905260806060820181905260009061217290830184611e1f565b9695505050505050565b6020815260006118996020830184611e1f565b60208082526032908201527f4552433732313a207472616e7366657220746f206e6f6e20455243373231526560408201527131b2b4bb32b91034b6b83632b6b2b73a32b960711b606082015260800190565b6020808252818101527f4f776e61626c653a2063616c6c6572206973206e6f7420746865206f776e6572604082015260600190565b60208082526031908201527f4552433732313a207472616e736665722063616c6c6572206973206e6f74206f6040820152701ddb995c881b9bdc88185c1c1c9bdd9959607a1b606082015260800190565b6000821982111561227a5761227a61235f565b500190565b60008261228e5761228e612375565b500490565b60008160001904831182151516156122ad576122ad61235f565b500290565b6000828210156122c4576122c461235f565b500390565b60005b838110156122e45781810151838201526020016122cc565b83811115610c6b5750506000910152565b600181811c9082168061230957607f821691505b6020821081141561232a57634e487b7160e01b600052602260045260246000fd5b50919050565b60006000198214156123445761234461235f565b5060010190565b60008261235a5761235a612375565b500690565b634e487b7160e01b600052601160045260246000fd5b634e487b7160e01b600052601260045260246000fd5b634e487b7160e01b600052604160045260246000fd5b6001600160e01b031981168114610f9857600080fdfe3c7376672076696577426f783d222030203020313030203130302220786d6c6e733d2268747470733a2f2f7777772e77332e6f72672f323030302f737667223e3c7465787420793d223530223e4142434445464748494a4b4c4d4e4f505152535455565758595a6162636465666768696a6b6c6d6e6f707172737475767778797a303132333435363738392b2fa2646970667358221220cbb4d7fdb976c0e1496760e85130300e595bc7c01ba6938595707fb2e73fda5a64736f6c63430008040033",
  "linkReferences": {},
  "deployedLinkReferences": {}
}